{
  "abi": [
    {
      "inputs": [
        {
          "internalType": "address payable",
          "name": "oracleContract",
          "type": "address"
        }
      ],
      "stateMutability": "nonpayable",
      "type": "constructor"
    },
    {
      "anonymous": false,
      "inputs": [
        {
          "indexed": true,
          "internalType": "address",
          "name": "borrower",
          "type": "address"
        },
        {
          "indexed": false,
          "internalType": "uint256",
          "name": "debtAmount",
          "type": "uint256"
        }
      ],
      "name": "Liquidation",
      "type": "event"
    },
    {
      "anonymous": false,
      "inputs": [
        {
          "indexed": true,
          "internalType": "address",
          "name": "token",
          "type": "address"
        },
        {
          "indexed": false,
          "internalType": "uint256",
          "name": "price",
          "type": "uint256"
        }
      ],
      "name": "PriceUpdate",
      "type": "event"
    },
    {
      "anonymous": false,
      "inputs": [
        {
          "indexed": false,
          "internalType": "uint256",
          "name": "amount",
          "type": "uint256"
        }
      ],
      "name": "ReserveDeposit",
      "type": "event"
    },
    {
      "anonymous": false,
      "inputs": [
        {
          "indexed": true,
          "internalType": "address",
          "name": "token",
          "type": "address"
        },
        {
          "indexed": false,
          "internalType": "uint256",
          "name": "amount",
          "type": "uint256"
        }
      ],
      "name": "ReserveWithdraw",
      "type": "event"
    },
    {
      "anonymous": false,
      "inputs": [
        {
          "indexed": true,
          "internalType": "bytes32",
          "name": "role",
          "type": "bytes32"
        },
        {
          "indexed": true,
          "internalType": "bytes32",
          "name": "previousAdminRole",
          "type": "bytes32"
        },
        {
          "indexed": true,
          "internalType": "bytes32",
          "name": "newAdminRole",
          "type": "bytes32"
        }
      ],
      "name": "RoleAdminChanged",
      "type": "event"
    },
    {
      "anonymous": false,
      "inputs": [
        {
          "indexed": true,
          "internalType": "bytes32",
          "name": "role",
          "type": "bytes32"
        },
        {
          "indexed": true,
          "internalType": "address",
          "name": "account",
          "type": "address"
        },
        {
          "indexed": true,
          "internalType": "address",
          "name": "sender",
          "type": "address"
        }
      ],
      "name": "RoleGranted",
      "type": "event"
    },
    {
      "anonymous": false,
      "inputs": [
        {
          "indexed": true,
          "internalType": "bytes32",
          "name": "role",
          "type": "bytes32"
        },
        {
          "indexed": true,
          "internalType": "address",
          "name": "account",
          "type": "address"
        },
        {
          "indexed": true,
          "internalType": "address",
          "name": "sender",
          "type": "address"
        }
      ],
      "name": "RoleRevoked",
      "type": "event"
    },
    {
      "anonymous": false,
      "inputs": [
        {
          "indexed": true,
          "internalType": "address",
          "name": "borrower",
          "type": "address"
        },
        {
          "indexed": false,
          "internalType": "uint256",
          "name": "amount",
          "type": "uint256"
        }
      ],
      "name": "VaultBorrow",
      "type": "event"
    },
    {
      "anonymous": false,
      "inputs": [
        {
          "indexed": true,
          "internalType": "address",
          "name": "owner",
          "type": "address"
        },
        {
          "indexed": false,
          "internalType": "uint256",
          "name": "amount",
          "type": "uint256"
        }
      ],
      "name": "VaultDeposit",
      "type": "event"
    },
    {
      "anonymous": false,
      "inputs": [
        {
          "indexed": true,
          "internalType": "address",
          "name": "borrower",
          "type": "address"
        },
        {
          "indexed": false,
          "internalType": "uint256",
          "name": "amount",
          "type": "uint256"
        }
      ],
      "name": "VaultRepay",
      "type": "event"
    },
    {
      "anonymous": false,
      "inputs": [
        {
          "indexed": true,
          "internalType": "address",
          "name": "borrower",
          "type": "address"
        },
        {
          "indexed": false,
          "internalType": "uint256",
          "name": "amount",
          "type": "uint256"
        }
      ],
      "name": "VaultWithdraw",
      "type": "event"
    },
    {
      "inputs": [],
      "name": "DEFAULT_ADMIN_ROLE",
      "outputs": [
        {
          "internalType": "bytes32",
          "name": "",
          "type": "bytes32"
        }
      ],
      "stateMutability": "view",
      "type": "function"
    },
    {
      "inputs": [],
      "name": "KEEPER_ROLE",
      "outputs": [
        {
          "internalType": "bytes32",
          "name": "",
          "type": "bytes32"
        }
      ],
      "stateMutability": "view",
      "type": "function"
    },
    {
      "inputs": [],
      "name": "REPORTER_ROLE",
      "outputs": [
        {
          "internalType": "bytes32",
          "name": "",
          "type": "bytes32"
        }
      ],
      "stateMutability": "view",
      "type": "function"
    },
    {
      "inputs": [
        {
          "internalType": "address",
          "name": "keeper",
          "type": "address"
        }
      ],
      "name": "addKeeper",
      "outputs": [],
      "stateMutability": "nonpayable",
      "type": "function"
    },
    {
      "inputs": [
        {
          "internalType": "address",
          "name": "updater",
          "type": "address"
        }
      ],
      "name": "addReporter",
      "outputs": [],
      "stateMutability": "nonpayable",
      "type": "function"
    },
    {
      "inputs": [],
      "name": "getBankFactoryOwner",
      "outputs": [
        {
          "internalType": "address",
          "name": "",
          "type": "address"
        }
      ],
      "stateMutability": "view",
      "type": "function"
    },
    {
      "inputs": [],
      "name": "getCollateralTokenAddress",
      "outputs": [
        {
          "internalType": "address",
          "name": "",
          "type": "address"
        }
      ],
      "stateMutability": "view",
      "type": "function"
    },
    {
      "inputs": [],
      "name": "getCollateralTokenLastUpdatedAt",
      "outputs": [
        {
          "internalType": "uint256",
          "name": "",
          "type": "uint256"
        }
      ],
      "stateMutability": "view",
      "type": "function"
    },
    {
      "inputs": [],
      "name": "getCollateralTokenPrice",
      "outputs": [
        {
          "internalType": "uint256",
          "name": "",
          "type": "uint256"
        }
      ],
      "stateMutability": "view",
      "type": "function"
    },
    {
      "inputs": [],
      "name": "getCollateralTokenPriceGranularity",
      "outputs": [
        {
          "internalType": "uint256",
          "name": "",
          "type": "uint256"
        }
      ],
      "stateMutability": "view",
      "type": "function"
    },
    {
      "inputs": [],
      "name": "getCollateralizationRatio",
      "outputs": [
        {
          "internalType": "uint256",
          "name": "",
          "type": "uint256"
        }
      ],
      "stateMutability": "view",
      "type": "function"
    },
    {
      "inputs": [
        {
          "internalType": "uint256",
          "name": "_requestId",
          "type": "uint256"
        }
      ],
      "name": "getCurrentValue",
      "outputs": [
        {
          "internalType": "bool",
          "name": "ifRetrieve",
          "type": "bool"
        },
        {
          "internalType": "uint256",
          "name": "value",
          "type": "uint256"
        },
        {
          "internalType": "uint256",
          "name": "_timestampRetrieved",
          "type": "uint256"
        }
      ],
      "stateMutability": "view",
      "type": "function"
    },
    {
      "inputs": [],
      "name": "getDebtTokenAddress",
      "outputs": [
        {
          "internalType": "address",
          "name": "",
          "type": "address"
        }
      ],
      "stateMutability": "view",
      "type": "function"
    },
    {
      "inputs": [],
      "name": "getDebtTokenLastUpdatedAt",
      "outputs": [
        {
          "internalType": "uint256",
          "name": "",
          "type": "uint256"
        }
      ],
      "stateMutability": "view",
      "type": "function"
    },
    {
      "inputs": [],
      "name": "getDebtTokenPrice",
      "outputs": [
        {
          "internalType": "uint256",
          "name": "",
          "type": "uint256"
        }
      ],
      "stateMutability": "view",
      "type": "function"
    },
    {
      "inputs": [],
      "name": "getDebtTokenPriceGranularity",
      "outputs": [
        {
          "internalType": "uint256",
          "name": "",
          "type": "uint256"
        }
      ],
      "stateMutability": "view",
      "type": "function"
    },
    {
      "inputs": [],
      "name": "getInterestRate",
      "outputs": [
        {
          "internalType": "uint256",
          "name": "",
          "type": "uint256"
        }
      ],
      "stateMutability": "view",
      "type": "function"
    },
    {
      "inputs": [],
      "name": "getLiquidationPenalty",
      "outputs": [
        {
          "internalType": "uint256",
          "name": "",
          "type": "uint256"
        }
      ],
      "stateMutability": "view",
      "type": "function"
    },
    {
      "inputs": [],
      "name": "getName",
      "outputs": [
        {
          "internalType": "string",
          "name": "",
          "type": "string"
        }
      ],
      "stateMutability": "view",
      "type": "function"
    },
    {
      "inputs": [],
      "name": "getOriginationFee",
      "outputs": [
        {
          "internalType": "uint256",
          "name": "",
          "type": "uint256"
        }
      ],
      "stateMutability": "view",
      "type": "function"
    },
    {
      "inputs": [],
      "name": "getReserveBalance",
      "outputs": [
        {
          "internalType": "uint256",
          "name": "",
          "type": "uint256"
        }
      ],
      "stateMutability": "view",
      "type": "function"
    },
    {
      "inputs": [],
      "name": "getReserveCollateralBalance",
      "outputs": [
        {
          "internalType": "uint256",
          "name": "",
          "type": "uint256"
        }
      ],
      "stateMutability": "view",
      "type": "function"
    },
    {
      "inputs": [
        {
          "internalType": "bytes32",
          "name": "role",
          "type": "bytes32"
        }
      ],
      "name": "getRoleAdmin",
      "outputs": [
        {
          "internalType": "bytes32",
          "name": "",
          "type": "bytes32"
        }
      ],
      "stateMutability": "view",
      "type": "function"
    },
    {
      "inputs": [
        {
          "internalType": "bytes32",
          "name": "role",
          "type": "bytes32"
        },
        {
          "internalType": "uint256",
          "name": "index",
          "type": "uint256"
        }
      ],
      "name": "getRoleMember",
      "outputs": [
        {
          "internalType": "address",
          "name": "",
          "type": "address"
        }
      ],
      "stateMutability": "view",
      "type": "function"
    },
    {
      "inputs": [
        {
          "internalType": "bytes32",
          "name": "role",
          "type": "bytes32"
        }
      ],
      "name": "getRoleMemberCount",
      "outputs": [
        {
          "internalType": "uint256",
          "name": "",
          "type": "uint256"
        }
      ],
      "stateMutability": "view",
      "type": "function"
    },
    {
      "inputs": [],
      "name": "getVaultCollateralAmount",
      "outputs": [
        {
          "internalType": "uint256",
          "name": "",
          "type": "uint256"
        }
      ],
      "stateMutability": "view",
      "type": "function"
    },
    {
      "inputs": [
        {
          "internalType": "address",
          "name": "vaultOwner",
          "type": "address"
        }
      ],
      "name": "getVaultCollateralizationRatio",
      "outputs": [
        {
          "internalType": "uint256",
          "name": "",
          "type": "uint256"
        }
      ],
      "stateMutability": "view",
      "type": "function"
    },
    {
      "inputs": [],
      "name": "getVaultDebtAmount",
      "outputs": [
        {
          "internalType": "uint256",
          "name": "",
          "type": "uint256"
        }
      ],
      "stateMutability": "view",
      "type": "function"
    },
    {
      "inputs": [],
      "name": "getVaultRepayAmount",
      "outputs": [
        {
          "internalType": "uint256",
          "name": "principal",
          "type": "uint256"
        }
      ],
      "stateMutability": "view",
      "type": "function"
    },
    {
      "inputs": [
        {
          "internalType": "bytes32",
          "name": "role",
          "type": "bytes32"
        },
        {
          "internalType": "address",
          "name": "account",
          "type": "address"
        }
      ],
      "name": "grantRole",
      "outputs": [],
      "stateMutability": "nonpayable",
      "type": "function"
    },
    {
      "inputs": [
        {
          "internalType": "bytes32",
          "name": "role",
          "type": "bytes32"
        },
        {
          "internalType": "address",
          "name": "account",
          "type": "address"
        }
      ],
      "name": "hasRole",
      "outputs": [
        {
          "internalType": "bool",
          "name": "",
          "type": "bool"
        }
      ],
      "stateMutability": "view",
      "type": "function"
    },
    {
      "inputs": [
        {
          "internalType": "address",
          "name": "creator",
          "type": "address"
        },
        {
          "internalType": "string",
          "name": "bankName",
          "type": "string"
        },
        {
          "internalType": "uint256",
          "name": "interestRate",
          "type": "uint256"
        },
        {
          "internalType": "uint256",
          "name": "originationFee",
          "type": "uint256"
        },
        {
          "internalType": "uint256",
          "name": "collateralizationRatio",
          "type": "uint256"
        },
        {
          "internalType": "uint256",
          "name": "liquidationPenalty",
          "type": "uint256"
        },
        {
          "internalType": "uint256",
          "name": "period",
          "type": "uint256"
        },
        {
          "internalType": "address",
          "name": "bankFactoryOwner",
          "type": "address"
        },
        {
          "internalType": "address payable",
          "name": "oracleContract",
          "type": "address"
        }
      ],
      "name": "init",
      "outputs": [],
      "stateMutability": "nonpayable",
      "type": "function"
    },
    {
      "inputs": [
        {
          "internalType": "address",
          "name": "vaultOwner",
          "type": "address"
        }
      ],
      "name": "liquidate",
      "outputs": [],
      "stateMutability": "nonpayable",
      "type": "function"
    },
    {
      "inputs": [],
      "name": "owner",
      "outputs": [
        {
          "internalType": "address",
          "name": "",
          "type": "address"
        }
      ],
      "stateMutability": "view",
      "type": "function"
    },
    {
      "inputs": [
        {
          "internalType": "bytes32",
          "name": "role",
          "type": "bytes32"
        },
        {
          "internalType": "address",
          "name": "account",
          "type": "address"
        }
      ],
      "name": "renounceRole",
      "outputs": [],
      "stateMutability": "nonpayable",
      "type": "function"
    },
    {
      "inputs": [
        {
          "internalType": "uint256",
          "name": "amount",
          "type": "uint256"
        }
      ],
      "name": "reserveDeposit",
      "outputs": [],
      "stateMutability": "nonpayable",
      "type": "function"
    },
    {
      "inputs": [
        {
          "internalType": "uint256",
          "name": "amount",
          "type": "uint256"
        }
      ],
      "name": "reserveWithdraw",
      "outputs": [],
      "stateMutability": "nonpayable",
      "type": "function"
    },
    {
      "inputs": [
        {
          "internalType": "uint256",
          "name": "amount",
          "type": "uint256"
        }
      ],
      "name": "reserveWithdrawCollateral",
      "outputs": [],
      "stateMutability": "nonpayable",
      "type": "function"
    },
    {
      "inputs": [
        {
          "internalType": "address",
          "name": "oldKeeper",
          "type": "address"
        }
      ],
      "name": "revokeKeeper",
      "outputs": [],
      "stateMutability": "nonpayable",
      "type": "function"
    },
    {
      "inputs": [
        {
          "internalType": "address",
          "name": "oldUpdater",
          "type": "address"
        }
      ],
      "name": "revokeReporter",
      "outputs": [],
      "stateMutability": "nonpayable",
      "type": "function"
    },
    {
      "inputs": [
        {
          "internalType": "bytes32",
          "name": "role",
          "type": "bytes32"
        },
        {
          "internalType": "address",
          "name": "account",
          "type": "address"
        }
      ],
      "name": "revokeRole",
      "outputs": [],
      "stateMutability": "nonpayable",
      "type": "function"
    },
    {
      "inputs": [
        {
          "internalType": "address",
          "name": "newOwner",
          "type": "address"
        }
      ],
      "name": "setBankFactoryOwner",
      "outputs": [],
      "stateMutability": "nonpayable",
      "type": "function"
    },
    {
      "inputs": [
        {
          "internalType": "address",
          "name": "collateralToken",
          "type": "address"
        },
        {
          "internalType": "uint256",
          "name": "collateralTokenTellorRequestId",
          "type": "uint256"
        },
        {
          "internalType": "uint256",
          "name": "collateralTokenPriceGranularity",
          "type": "uint256"
        },
        {
          "internalType": "uint256",
          "name": "collateralTokenPrice",
          "type": "uint256"
        }
      ],
      "name": "setCollateral",
      "outputs": [],
      "stateMutability": "nonpayable",
      "type": "function"
    },
    {
      "inputs": [
        {
          "internalType": "address",
          "name": "debtToken",
          "type": "address"
        },
        {
          "internalType": "uint256",
          "name": "debtTokenTellorRequestId",
          "type": "uint256"
        },
        {
          "internalType": "uint256",
          "name": "debtTokenPriceGranularity",
          "type": "uint256"
        },
        {
          "internalType": "uint256",
          "name": "debtTokenPrice",
          "type": "uint256"
        }
      ],
      "name": "setDebt",
      "outputs": [],
      "stateMutability": "nonpayable",
      "type": "function"
    },
    {
      "inputs": [
        {
          "internalType": "bytes4",
          "name": "interfaceId",
          "type": "bytes4"
        }
      ],
      "name": "supportsInterface",
      "outputs": [
        {
          "internalType": "bool",
          "name": "",
          "type": "bool"
        }
      ],
      "stateMutability": "view",
      "type": "function"
    },
    {
      "inputs": [
        {
          "internalType": "address",
          "name": "newOwner",
          "type": "address"
        }
      ],
      "name": "transferOwnership",
      "outputs": [],
      "stateMutability": "nonpayable",
      "type": "function"
    },
    {
      "inputs": [],
      "name": "updateCollateralPrice",
      "outputs": [],
      "stateMutability": "nonpayable",
      "type": "function"
    },
    {
      "inputs": [],
      "name": "updateDebtPrice",
      "outputs": [],
      "stateMutability": "nonpayable",
      "type": "function"
    },
    {
      "inputs": [
        {
          "internalType": "uint256",
          "name": "amount",
          "type": "uint256"
        }
      ],
      "name": "vaultBorrow",
      "outputs": [],
      "stateMutability": "nonpayable",
      "type": "function"
    },
    {
      "inputs": [
        {
          "internalType": "uint256",
          "name": "amount",
          "type": "uint256"
        }
      ],
      "name": "vaultDeposit",
      "outputs": [],
      "stateMutability": "nonpayable",
      "type": "function"
    },
    {
      "inputs": [
        {
          "internalType": "uint256",
          "name": "amount",
          "type": "uint256"
        }
      ],
      "name": "vaultRepay",
      "outputs": [],
      "stateMutability": "nonpayable",
      "type": "function"
    },
    {
      "inputs": [
        {
          "internalType": "uint256",
          "name": "amount",
          "type": "uint256"
        }
      ],
      "name": "vaultWithdraw",
      "outputs": [],
      "stateMutability": "nonpayable",
      "type": "function"
    },
    {
      "inputs": [
        {
          "internalType": "address",
          "name": "",
          "type": "address"
        }
      ],
      "name": "vaults",
      "outputs": [
        {
          "internalType": "uint256",
          "name": "collateralAmount",
          "type": "uint256"
        },
        {
          "internalType": "uint256",
          "name": "debtAmount",
          "type": "uint256"
        },
        {
          "internalType": "uint256",
          "name": "createdAt",
          "type": "uint256"
        }
      ],
      "stateMutability": "view",
      "type": "function"
    }
  ],
  "bytecode": "60806040523480156200001157600080fd5b5060405162002cb338038062002cb383398101604081905262000034916200005a565b601580546001600160a01b0319166001600160a01b03929092169190911790556200008c565b6000602082840312156200006d57600080fd5b81516001600160a01b03811681146200008557600080fd5b9392505050565b612c17806200009c6000396000f3fe608060405234801561001057600080fd5b50600436106103265760003560e01c8063685a5808116101b8578063b71d7a6e11610104578063dd8755f2116100a2578063f327e3241161007c578063f327e324146106dc578063f91614eb146106e4578063fb839dda146106ec578063fc2e39a6146106ff57600080fd5b8063dd8755f2146106a3578063ec5e5e7d146106b6578063f2fde38b146106c957600080fd5b8063ca15c873116100de578063ca15c87314610664578063cb765c1d14610677578063d267974c1461067f578063d547741f1461069057600080fd5b8063b71d7a6e14610641578063c14d045414610649578063c969ac061461065c57600080fd5b80638cdcc9551161017157806391d148541161014b57806391d14854146105c8578063a217fddf146105db578063a622ee7c146105e3578063a860988c1461062c57600080fd5b80638cdcc955146105915780638da5cb5b146105a45780639010d07c146105b557600080fd5b8063685a5808146105325780636d483fe61461054a57806370c12f1e1461055b5780637649b9381461056e57806385b4e5431461058157806386ef57381461058957600080fd5b806336568abe1161027757806345fd80e4116102305780634fd889511161020a5780634fd88951146104fc5780635257b5661461050f57806353388f44146105175780635729b3941461051f57600080fd5b806345fd80e4146104ce578063494f4188146104d65780634b272d9a146104e957600080fd5b806336568abe1461043d57806338507ff5146104505780633f60d799146104635780633fcad964146104785780634032b72b146104a8578063435726c4146104bb57600080fd5b80631e522b29116102e45780632f865568116102be5780632f865568146103e85780633149cb14146103fb578063317c9e4214610420578063364bc15a1461042857600080fd5b80631e522b29146103aa578063248a9ca3146103b25780632f2ff15d146103d557600080fd5b806291a4461461032b57806301ffc9a71461034057806308dcd7c614610368578063151439501461037a57806317d7de7c146103825780631b9084b414610397575b600080fd5b61033e61033936600461270e565b610707565b005b61035361034e366004612727565b6107a4565b60405190151581526020015b60405180910390f35b6005545b60405190815260200161035f565b600a5461036c565b61038a6107cf565b60405161035f919061277d565b61036c6103a53660046127d0565b610861565b60145461036c565b61036c6103c036600461270e565b60009081526018602052604090206001015490565b61033e6103e33660046127ed565b61090d565b61033e6103f63660046127d0565b610937565b604d546001600160a01b03165b6040516001600160a01b03909116815260200161035f565b600b5461036c565b61036c600080516020612bc283398151915281565b61033e61044b3660046127ed565b610bb1565b61033e61045e36600461281d565b610c2f565b61036c600080516020612ba283398151915281565b61048b61048636600461270e565b610cc5565b60408051931515845260208401929092529082015260600161035f565b61033e6104b63660046127d0565b610e61565b61033e6104c936600461270e565b610eca565b61033e610fd0565b61033e6104e43660046127d0565b61109d565b61033e6104f73660046127d0565b6110b5565b61033e61050a36600461270e565b611131565b60115461036c565b600e5461036c565b61033e61052d36600461270e565b6113ec565b3360009081526002602052604090206001015461036c565b6009546001600160a01b0316610408565b61033e61056936600461286e565b61149a565b61033e61057c36600461270e565b6115c8565b61033e61174e565b60135461036c565b61033e61059f3660046127d0565b611815565b6000546001600160a01b0316610408565b6104086105c3366004612984565b61182d565b6103536105d63660046127ed565b61184c565b61036c600081565b6106116105f13660046127d0565b600260208190526000918252604090912080546001820154919092015483565b6040805193845260208401929092529082015260600161035f565b3360009081526002602052604090205461036c565b61036c611877565b61033e61065736600461281d565b611920565b60045461036c565b61036c61067236600461270e565b6119b6565b60105461036c565b6003546001600160a01b0316610408565b61033e61069e3660046127ed565b6119cd565b61033e6106b13660046127d0565b6119f2565b61033e6106c436600461270e565b611a58565b61033e6106d73660046127d0565b611bd6565b60085461036c565b600f5461036c565b61033e6106fa36600461270e565b611c41565b60125461036c565b600061071281611dfe565b6000821161073b5760405162461bcd60e51b8152600401610732906129a6565b60405180910390fd5b81600f600101600082825461075091906129e7565b909155505060035461076d906001600160a01b0316333085611e08565b6040518281527f71eb3e5df75ef293b81b4c7b38db51f7a6cec007d12529cb74d4eafb7fa532229060200160405180910390a15050565b60006001600160e01b03198216635a05180f60e01b14806107c957506107c982611e79565b92915050565b6060600180546107de906129ff565b80601f016020809104026020016040519081016040528092919081815260200182805461080a906129ff565b80156108575780601f1061082c57610100808354040283529160200191610857565b820191906000526020600020905b81548152906001019060200180831161083a57829003601f168201915b5050505050905090565b6001600160a01b03811660009081526002602052604081206001015461088957506000919050565b6005546004546001600160a01b0384166000908152600260205260409020600101546108b59190612a3a565b6108bf9190612a59565b600b54600a546001600160a01b0385166000908152600260205260409020546108e89190612a3a565b6108f29190612a59565b6108fe90612710612a3a565b6107c99190612a59565b919050565b60008281526018602052604090206001015461092881611dfe565b6109328383611f0b565b505050565b61094f600080516020612bc28339815191523361184c565b80610960575061096060003361184c565b6109a25760405162461bcd60e51b81526020600482015260136024820152723737ba1035b2b2b832b91037b91030b236b4b760691b6044820152606401610732565b6013546109b0906064612a3a565b6109b982610861565b10610a065760405162461bcd60e51b815260206004820152601d60248201527f5641554c54204e4f5420554e444552434f4c4c41544552414c495a45440000006044820152606401610732565b6014546001600160a01b0382166000908152600260205260408120600101549091606491829190610a379083612a3a565b610a419190612a3a565b610a4b9190612a59565b610a559190612a59565b6001600160a01b038316600090815260026020526040902060010154610a7b91906129e7565b600a54600454919250600091610a919084612a3a565b610a9b9190612a59565b6001600160a01b038416600090815260026020526040902054909150811115610ad957506001600160a01b0382166000908152600260205260409020545b6000610ae6600a83612a59565b9050610af28183612a7b565b600f8054600090610b049084906129e7565b90915550506001600160a01b03841660009081526002602052604081208054849290610b31908490612a7b565b90915550506001600160a01b03808516600090815260026020526040812060010155604d54600954610b6892908116911683611f2d565b836001600160a01b03167f6dd29d11f8d1bcdbd79da21bf92895417dcc2f8886b3db11c8a4ce00b73de9d084604051610ba391815260200190565b60405180910390a250505050565b6001600160a01b0381163314610c215760405162461bcd60e51b815260206004820152602f60248201527f416363657373436f6e74726f6c3a2063616e206f6e6c792072656e6f756e636560448201526e103937b632b9903337b91039b2b63360891b6064820152608401610732565b610c2b8282611f5d565b5050565b6000610c3a81611dfe565b6009546001600160a01b0316158015610c5b57506001600160a01b03851615155b610c925760405162461bcd60e51b81526020600482015260086024820152672173657461626c6560c01b6044820152606401610732565b50600980546001600160a01b0319166001600160a01b039590951694909417909355600a92909255600b91909155600c55565b6015546040516311bbb87160e21b815260048101839052600091829182916001600160a01b031690829082906346eee1c490602401602060405180830381865afa158015610d17573d6000803e3d6000fd5b505050506040513d601f19601f82011682018060405250810190610d3b9190612a92565b905060006001600160a01b0383166377fbb66388610d5a600186612a7b565b6040516001600160e01b031960e085901b16815260048101929092526024820152604401602060405180830381865afa158015610d9b573d6000803e3d6000fd5b505050506040513d601f19601f82011682018060405250810190610dbf9190612a92565b6040516393fa491560e01b815260048101899052602481018290529091506000906001600160a01b038516906393fa491590604401602060405180830381865afa158015610e11573d6000803e3d6000fd5b505050506040513d601f19601f82011682018060405250810190610e359190612a92565b90508015610e4d576001965094509250610e5a915050565b5060009550859450925050505b9193909250565b6001600160a01b038116610eaf5760405162461bcd60e51b81526020600482015260156024820152741bdc195c985d1a5bdb881b9bdd08185b1b1bddd959605a1b6044820152606401610732565b610ec7600080516020612bc28339815191528261090d565b50565b6000610ed581611dfe565b600f54821115610f275760405162461bcd60e51b815260206004820181905260248201527f4e4f5420454e4f55474820434f4c4c41544552414c20494e20524553455256456044820152606401610732565b6000610f3460c884612a59565b905082600f6000016000828254610f4b9190612a7b565b90915550506009546040518481526001600160a01b03909116907f0529afc4538720fe0b3eadc40486369ab962002d72fead1387b300c66073e7bf9060200160405180910390a2610fb333610fa08386612a7b565b6009546001600160a01b03169190611f2d565b604d54600954610932916001600160a01b03918216911683611f2d565b610fe8600080516020612ba28339815191523361184c565b80610ff95750610ff960003361184c565b6110455760405162461bcd60e51b815260206004820152601a60248201527f6e6f742070726963652075706461746572206f722061646d696e0000000000006044820152606401610732565b60065461105190610cc5565b60085560048190556003546040519182526001600160a01b031691507f64e6e7bd72b853c4e62fd6ceaca05a104700c70a4cb567c75c7f2242ba7f037c906020015b60405180910390a2565b610ec7600080516020612bc2833981519152826119cd565b604d546001600160a01b0316331461110f5760405162461bcd60e51b815260206004820152601960248201527f4953204e4f542042414e4b20464143544f5259204f574e4552000000000000006044820152606401610732565b604d80546001600160a01b0319166001600160a01b0392909216919091179055565b336000908152600260205260409020600101541561116557611151611877565b336000908152600260205260409020600101555b601354600454600a54336000908152600260205260408120549093929161118b91612a3a565b6111959190612a59565b61119f9190612a59565b6111aa906064612a3a565b6005549091506111ba9082612a3a565b600b549091506111ca9082612a59565b336000908152600260205260409020600101549091506111ea9082612a7b565b601254909150612710906111fe9084612a3a565b6112089190612a59565b61121290836129e7565b33600090815260026020526040812060010180549091906112349084906129e7565b90915550503360009081526002602052604090206001015481116112925760405162461bcd60e51b81526020600482015260156024820152741393d508115393d551d20810d3d313105511549053605a1b6044820152606401610732565b6003546040516370a0823160e01b81523060048201526001600160a01b03909116906370a0823190602401602060405180830381865afa1580156112da573d6000803e3d6000fd5b505050506040513d601f19601f820116820180604052508101906112fe9190612a92565b8211156113435760405162461bcd60e51b81526020600482015260136024820152724e4f5420454e4f55474820524553455256455360681b6044820152606401610732565b60165433600090815260026020819052604090912001546113649042612a7b565b111561138157336000908152600260208190526040909120429101555b81600f60010160008282546113969190612a7b565b90915550506003546113b2906001600160a01b03163384611f2d565b60405182815233907f0232862a021d33ea4a70f5d509b754f0f6986aaa0ffdd5c7db4910422afc768a906020015b60405180910390a25050565b6000811161140c5760405162461bcd60e51b8152600401610732906129a6565b336000908152600260205260408120805483929061142b9084906129e7565b9091555050600f80548291906000906114459084906129e7565b9091555050600954611462906001600160a01b0316333084611e08565b60405181815233907f89d28cf06bdb2ee1b92cd046d58450042ad113e9f4cdabfc4d43e7c5557758d79060200160405180910390a250565b601a54610100900460ff16806114af5750303b155b806114bd5750601a5460ff16155b6115205760405162461bcd60e51b815260206004820152602e60248201527f436f6e747261637420696e7374616e63652068617320616c726561647920626560448201526d195b881a5b9a5d1a585b1a5e995960921b6064820152608401610732565b601a54610100900460ff1615801561154257601a805461ffff19166101011790555b61154d60008b611f7f565b601188905560128790556013869055601580546001600160a01b038085166001600160a01b03199283161790925560148790556016869055604d80549286169290911691909117905588516115a99060019060208c0190612675565b5080156115bc57601a805461ff00191690555b50505050505050505050565b600081116115e85760405162461bcd60e51b8152600401610732906129a6565b6115f0611877565b3360009081526002602052604090206001018190558111156116545760405162461bcd60e51b815260206004820152601b60248201527f43414e4e4f54205245504159204d4f5245205448414e204f57454400000000006044820152606401610732565b3360009081526002602052604081206001018054839290611676908490612a7b565b9091555050601080548291906000906116909084906129e7565b90915550506016543360009081526002602081905260408220015490916116b691612a59565b6016546116c39042612a59565b6116cd9190612a7b565b6016549091506116dd9082612a3a565b33600090815260026020819052604082200180549091906116ff9084906129e7565b909155505060035461171c906001600160a01b0316333085611e08565b60405182815233907f34d657cd4dec79d6716ce5ac15b81de5751705030cbef01b43b15eae44cbc112906020016113e0565b611766600080516020612ba28339815191523361184c565b80611777575061177760003361184c565b6117c35760405162461bcd60e51b815260206004820152601a60248201527f6e6f742070726963652075706461746572206f722061646d696e0000000000006044820152606401610732565b600c546117cf90610cc5565b600e55600a8190556009546040519182526001600160a01b031691507f64e6e7bd72b853c4e62fd6ceaca05a104700c70a4cb567c75c7f2242ba7f037c90602001611093565b610ec7600080516020612ba2833981519152826119cd565b60008281526019602052604081206118459083611f89565b9392505050565b60009182526018602090815260408084206001600160a01b0393909316845291905290205460ff1690565b3360009081526002602052604081206001015460165490919061189e906301e13380612a59565b60165433600090815260026020819052604082200154929350916118c29190612a59565b6016546118cf9042612a59565b6118d99190612a7b565b90508082612710600f60020154866118f19190612a3a565b6118fb9190612a59565b6119059190612a59565b61190f9190612a3a565b61191990846129e7565b9250505090565b600061192b81611dfe565b6003546001600160a01b031615801561194c57506001600160a01b03851615155b6119835760405162461bcd60e51b81526020600482015260086024820152672173657461626c6560c01b6044820152606401610732565b50600380546001600160a01b0319166001600160a01b039590951694909417909355600492909255600591909155600655565b60008181526019602052604081206107c990611f95565b6000828152601860205260409020600101546119e881611dfe565b6109328383611f5d565b6001600160a01b038116611a405760405162461bcd60e51b81526020600482015260156024820152741bdc195c985d1a5bdb881b9bdd08185b1b1bddd959605a1b6044820152606401610732565b610ec7600080516020612ba28339815191528261090d565b6000611a6381611dfe565b6003546040516370a0823160e01b815230600482015283916001600160a01b0316906370a0823190602401602060405180830381865afa158015611aab573d6000803e3d6000fd5b505050506040513d601f19601f82011682018060405250810190611acf9190612a92565b1015611b275760405162461bcd60e51b815260206004820152602160248201527f4e4f5420454e4f554748204445425420544f4b454e5320494e205245534552566044820152604560f81b6064820152608401610732565b6000611b3460c884612a59565b905082600f6001016000828254611b4b9190612a7b565b90915550611b72905033611b5f8386612a7b565b6003546001600160a01b03169190611f2d565b604d54600354611b8f916001600160a01b03918216911683611f2d565b6003546040518481526001600160a01b03909116907f0529afc4538720fe0b3eadc40486369ab962002d72fead1387b300c66073e7bf9060200160405180910390a2505050565b6000546001600160a01b03163314611c1f5760405162461bcd60e51b815260206004820152600c60248201526b24a9902727aa1027aba722a960a11b6044820152606401610732565b600080546001600160a01b0319166001600160a01b0392909216919091179055565b33600090815260026020526040902054811115611ca05760405162461bcd60e51b815260206004820152601f60248201527f43414e4e4f54205749544844524157204d4f524520434f4c4c41544552414c006044820152606401610732565b601354600454600a54336000908152600260205260408120549093929190611cc9908690612a7b565b611cd39190612a3a565b611cdd9190612a59565b611ce79190612a59565b611cf2906064612a3a565b600554909150611d029082612a3a565b600b54909150611d129082612a59565b33600090815260026020526040902060010154909150811015611d775760405162461bcd60e51b815260206004820152601f60248201527f43414e4e4f5420554e444552434f4c4c41544552414c495a45205641554c54006044820152606401610732565b3360009081526002602052604081208054849290611d96908490612a7b565b9091555050600f8054839190600090611db0908490612a7b565b9091555050600954611dcc906001600160a01b03163384611f2d565b60405182815233907f0ac60fbf53b67f5a6a0c8031dd9d1610a06f01669b1a8b9af98f3a6a477e8d7c906020016113e0565b610ec78133611f9f565b6040516001600160a01b0380851660248301528316604482015260648101829052611e739085906323b872dd60e01b906084015b60408051601f198184030181529190526020810180516001600160e01b03166001600160e01b031990931692909217909152612003565b50505050565b60006001600160e01b03198216637965db0b60e01b14806107c957506017546040516301ffc9a760e01b81526001600160e01b0319841660048201526001600160a01b03909116906301ffc9a790602401602060405180830381865afa158015611ee7573d6000803e3d6000fd5b505050506040513d601f19601f820116820180604052508101906107c99190612aab565b611f1582826120d5565b6000828152601960205260409020610932908261215b565b6040516001600160a01b03831660248201526044810182905261093290849063a9059cbb60e01b90606401611e3c565b611f678282612170565b600082815260196020526040902061093290826121d7565b610c2b8282611f0b565b600061184583836121ec565b60006107c9825490565b611fa9828261184c565b610c2b57611fc1816001600160a01b03166014612216565b611fcc836020612216565b604051602001611fdd929190612acd565b60408051601f198184030181529082905262461bcd60e51b82526107329160040161277d565b6000612058826040518060400160405280602081526020017f5361666545524332303a206c6f772d6c6576656c2063616c6c206661696c6564815250856001600160a01b03166123b29092919063ffffffff16565b80519091501561093257808060200190518101906120769190612aab565b6109325760405162461bcd60e51b815260206004820152602a60248201527f5361666545524332303a204552433230206f7065726174696f6e20646964206e6044820152691bdd081cdd58d8d9595960b21b6064820152608401610732565b6120df828261184c565b610c2b5760008281526018602090815260408083206001600160a01b03851684529091529020805460ff191660011790556121173390565b6001600160a01b0316816001600160a01b0316837f2f8788117e7eff1d82e926ec794901d17c78024a50270940304540a733656f0d60405160405180910390a45050565b6000611845836001600160a01b0384166123c9565b61217a828261184c565b15610c2b5760008281526018602090815260408083206001600160a01b0385168085529252808320805460ff1916905551339285917ff6391f5c32d9c69d2a47ea670b442974b53935d1edc7fd64eb21e047a839171b9190a45050565b6000611845836001600160a01b038416612418565b600082600001828154811061220357612203612b42565b9060005260206000200154905092915050565b60606000612225836002612a3a565b6122309060026129e7565b67ffffffffffffffff81111561224857612248612858565b6040519080825280601f01601f191660200182016040528015612272576020820181803683370190505b509050600360fc1b8160008151811061228d5761228d612b42565b60200101906001600160f81b031916908160001a905350600f60fb1b816001815181106122bc576122bc612b42565b60200101906001600160f81b031916908160001a90535060006122e0846002612a3a565b6122eb9060016129e7565b90505b6001811115612363576f181899199a1a9b1b9c1cb0b131b232b360811b85600f166010811061231f5761231f612b42565b1a60f81b82828151811061233557612335612b42565b60200101906001600160f81b031916908160001a90535060049490941c9361235c81612b58565b90506122ee565b5083156118455760405162461bcd60e51b815260206004820181905260248201527f537472696e67733a20686578206c656e67746820696e73756666696369656e746044820152606401610732565b60606123c1848460008561250b565b949350505050565b6000818152600183016020526040812054612410575081546001818101845560008481526020808220909301849055845484825282860190935260409020919091556107c9565b5060006107c9565b6000818152600183016020526040812054801561250157600061243c600183612a7b565b855490915060009061245090600190612a7b565b90508181146124b557600086600001828154811061247057612470612b42565b906000526020600020015490508087600001848154811061249357612493612b42565b6000918252602080832090910192909255918252600188019052604090208390555b85548690806124c6576124c6612b6f565b6001900381819060005260206000200160009055905585600101600086815260200190815260200160002060009055600193505050506107c9565b60009150506107c9565b60608247101561256c5760405162461bcd60e51b815260206004820152602660248201527f416464726573733a20696e73756666696369656e742062616c616e636520666f6044820152651c8818d85b1b60d21b6064820152608401610732565b6001600160a01b0385163b6125c35760405162461bcd60e51b815260206004820152601d60248201527f416464726573733a2063616c6c20746f206e6f6e2d636f6e74726163740000006044820152606401610732565b600080866001600160a01b031685876040516125df9190612b85565b60006040518083038185875af1925050503d806000811461261c576040519150601f19603f3d011682016040523d82523d6000602084013e612621565b606091505b509150915061263182828661263c565b979650505050505050565b6060831561264b575081611845565b82511561265b5782518084602001fd5b8160405162461bcd60e51b8152600401610732919061277d565b828054612681906129ff565b90600052602060002090601f0160209004810192826126a357600085556126e9565b82601f106126bc57805160ff19168380011785556126e9565b828001600101855582156126e9579182015b828111156126e95782518255916020019190600101906126ce565b506126f59291506126f9565b5090565b5b808211156126f557600081556001016126fa565b60006020828403121561272057600080fd5b5035919050565b60006020828403121561273957600080fd5b81356001600160e01b03198116811461184557600080fd5b60005b8381101561276c578181015183820152602001612754565b83811115611e735750506000910152565b602081526000825180602084015261279c816040850160208701612751565b601f01601f19169190910160400192915050565b6001600160a01b0381168114610ec757600080fd5b8035610908816127b0565b6000602082840312156127e257600080fd5b8135611845816127b0565b6000806040838503121561280057600080fd5b823591506020830135612812816127b0565b809150509250929050565b6000806000806080858703121561283357600080fd5b843561283e816127b0565b966020860135965060408601359560600135945092505050565b634e487b7160e01b600052604160045260246000fd5b60008060008060008060008060006101208a8c03121561288d57600080fd5b8935612898816127b0565b985060208a013567ffffffffffffffff808211156128b557600080fd5b818c0191508c601f8301126128c957600080fd5b8135818111156128db576128db612858565b604051601f8201601f19908116603f0116810190838211818310171561290357612903612858565b816040528281528f602084870101111561291c57600080fd5b82602086016020830137600060208483010152809c50505050505060408a0135965060608a0135955060808a0135945060a08a0135935060c08a0135925061296660e08b016127c5565b91506129756101008b016127c5565b90509295985092959850929598565b6000806040838503121561299757600080fd5b50508035926020909101359150565b602080825260119082015270416d6f756e74206973207a65726f20212160781b604082015260600190565b634e487b7160e01b600052601160045260246000fd5b600082198211156129fa576129fa6129d1565b500190565b600181811c90821680612a1357607f821691505b60208210811415612a3457634e487b7160e01b600052602260045260246000fd5b50919050565b6000816000190483118215151615612a5457612a546129d1565b500290565b600082612a7657634e487b7160e01b600052601260045260246000fd5b500490565b600082821015612a8d57612a8d6129d1565b500390565b600060208284031215612aa457600080fd5b5051919050565b600060208284031215612abd57600080fd5b8151801515811461184557600080fd5b7f416363657373436f6e74726f6c3a206163636f756e7420000000000000000000815260008351612b05816017850160208801612751565b7001034b99036b4b9b9b4b733903937b6329607d1b6017918401918201528351612b36816028840160208801612751565b01602801949350505050565b634e487b7160e01b600052603260045260246000fd5b600081612b6757612b676129d1565b506000190190565b634e487b7160e01b600052603160045260246000fd5b60008251612b97818460208701612751565b919091019291505056fe3204c940063673962b481a0395619b3dbbd137589c419e993978c1c71bcf68ecfc8737ab85eb45125971625a9ebdb75cc78e01d5c1fa80c4c6e5203f47bc4faba2646970667358221220f9cd8c4539ba932717cc38ecfc72370a208ae591330c39e46dfb320304dcdba964736f6c634300080b0033",
  "bytecodeSha1": "67a271b07e7c4bd8015cee9ddc48c04f14802f13",
  "compiler": {
    "evm_version": "istanbul",
    "optimizer": {
      "enabled": true,
      "runs": 200
    },
    "version": "0.8.11+commit.d7f03943"
  },
  "contractName": "Bank",
  "language": "Solidity",
  "natspec": {
    "kind": "dev",
    "methods": {
      "addKeeper(address)": {
        "details": "Allows admin to add address to keeper role",
        "params": {
          "keeper": "address of new keeper"
        }
      },
      "addReporter(address)": {
        "details": "Allows admin to add address to price updater role",
        "params": {
          "updater": "address of new price updater"
        }
      },
      "getCollateralTokenAddress()": {
        "details": "Getter function for debt token address",
        "returns": {
          "_0": "debt token price"
        }
      },
      "getCollateralTokenLastUpdatedAt()": {
        "details": "Getter function for the collateral token last update time",
        "returns": {
          "_0": "collateral token last update time"
        }
      },
      "getCollateralTokenPrice()": {
        "details": "Getter function for the collateral token price",
        "returns": {
          "_0": "collateral token price"
        }
      },
      "getCollateralTokenPriceGranularity()": {
        "details": "Getter function for the collateral token price granularity",
        "returns": {
          "_0": "collateral token price granularity"
        }
      },
      "getCollateralizationRatio()": {
        "details": "Getter function for the current collateralization ratio",
        "returns": {
          "_0": "collateralization ratio"
        }
      },
      "getDebtTokenAddress()": {
        "details": "Getter function for debt token address",
        "returns": {
          "_0": "debt token price"
        }
      },
      "getDebtTokenLastUpdatedAt()": {
        "details": "Getter function for the debt token last update time",
        "returns": {
          "_0": "debt token last update time"
        }
      },
      "getDebtTokenPrice()": {
        "details": "Getter function for the debt token(reserve) price",
        "returns": {
          "_0": "debt token price"
        }
      },
      "getDebtTokenPriceGranularity()": {
        "details": "Getter function for the debt token price granularity",
        "returns": {
          "_0": "debt token price granularity"
        }
      },
      "getInterestRate()": {
        "details": "Getter function for the current interest rate",
        "returns": {
          "_0": "interest rate"
        }
      },
      "getLiquidationPenalty()": {
        "details": "Getter function for the liquidation penalty",
        "returns": {
          "_0": "liquidation penalty"
        }
      },
      "getName()": {
        "details": "Getter function for the bank name",
        "returns": {
          "_0": "bank name"
        }
      },
      "getOriginationFee()": {
        "details": "Getter function for the origination fee",
        "returns": {
          "_0": "origination fee"
        }
      },
      "getReserveBalance()": {
        "details": "Getter function for the debt token(reserve) balance",
        "returns": {
          "_0": "debt reserve balance"
        }
      },
      "getReserveCollateralBalance()": {
        "details": "Getter function for the debt reserve collateral balance",
        "returns": {
          "_0": "collateral reserve balance"
        }
      },
      "getRoleAdmin(bytes32)": {
        "details": "Returns the admin role that controls `role`. See {grantRole} and {revokeRole}. To change a role's admin, use {_setRoleAdmin}."
      },
      "getRoleMember(bytes32,uint256)": {
        "details": "Returns one of the accounts that have `role`. `index` must be a value between 0 and {getRoleMemberCount}, non-inclusive. Role bearers are not sorted in any particular way, and their ordering may change at any point. WARNING: When using {getRoleMember} and {getRoleMemberCount}, make sure you perform all queries on the same block. See the following https://forum.openzeppelin.com/t/iterating-over-elements-on-enumerableset-in-openzeppelin-contracts/2296[forum post] for more information."
      },
      "getRoleMemberCount(bytes32)": {
        "details": "Returns the number of accounts that have `role`. Can be used together with {getRoleMember} to enumerate all bearers of a role."
      },
      "getVaultCollateralAmount()": {
        "details": "Getter function for the user's vault collateral amount",
        "returns": {
          "_0": "collateral amount"
        }
      },
      "getVaultCollateralizationRatio(address)": {
        "details": "Getter function for the collateralization ratio",
        "returns": {
          "_0": "collateralization ratio"
        }
      },
      "getVaultDebtAmount()": {
        "details": "Getter function for the user's vault debt amount",
        "returns": {
          "_0": "debt amount"
        }
      },
      "getVaultRepayAmount()": {
        "details": "Getter function for the user's vault debt amount   uses a simple interest formula (i.e. not compound  interest)",
        "returns": {
          "principal": "debt amount"
        }
      },
      "grantRole(bytes32,address)": {
        "details": "Grants `role` to `account`. If `account` had not been already granted `role`, emits a {RoleGranted} event. Requirements: - the caller must have ``role``'s admin role."
      },
      "hasRole(bytes32,address)": {
        "details": "Returns `true` if `account` has been granted `role`."
      },
      "init(address,string,uint256,uint256,uint256,uint256,uint256,address,address)": {
        "details": "This function sets the fundamental parameters for the bank      and assigns the first admin"
      },
      "liquidate(address)": {
        "details": "Only keepers or admins can use this function to liquidate a vault's debt, the bank admins gets the collateral liquidated, liquidated collateral is charged a 10% fee which gets paid to the bankFactoryOwner",
        "params": {
          "vaultOwner": "is the user the bank admins wants to liquidate"
        }
      },
      "owner()": {
        "details": "Returns the owner of the bank"
      },
      "renounceRole(bytes32,address)": {
        "details": "Revokes `role` from the calling account. Roles are often managed via {grantRole} and {revokeRole}: this function's purpose is to provide a mechanism for accounts to lose their privileges if they are compromised (such as when a trusted device is misplaced). If the calling account had been revoked `role`, emits a {RoleRevoked} event. Requirements: - the caller must be `account`."
      },
      "reserveDeposit(uint256)": {
        "details": "This function allows the Bank owner to deposit the reserve (debt tokens)",
        "params": {
          "amount": "is the amount to deposit"
        }
      },
      "reserveWithdraw(uint256)": {
        "details": "This function allows the Bank owner to withdraw the reserve (debt tokens)      Withdraws incur a 0.5% fee paid to the bankFactoryOwner",
        "params": {
          "amount": "is the amount to withdraw"
        }
      },
      "reserveWithdrawCollateral(uint256)": {
        "details": "This function allows the user to withdraw their collateral Withdraws incur a 0.5% fee paid to the bankFactoryOwner",
        "params": {
          "amount": "is the amount to withdraw"
        }
      },
      "revokeKeeper(address)": {
        "details": "Allows admin to remove address from keeper role",
        "params": {
          "oldKeeper": "address of old keeper"
        }
      },
      "revokeReporter(address)": {
        "details": "Allows admin to remove address from price updater role",
        "params": {
          "oldUpdater": "address of old price updater"
        }
      },
      "revokeRole(bytes32,address)": {
        "details": "Revokes `role` from `account`. If `account` had been granted `role`, emits a {RoleRevoked} event. Requirements: - the caller must have ``role``'s admin role."
      },
      "setCollateral(address,uint256,uint256,uint256)": {
        "details": "This function sets the collateral token properties, only callable one time"
      },
      "setDebt(address,uint256,uint256,uint256)": {
        "details": "This function sets the debt token properties, only callable one time"
      },
      "supportsInterface(bytes4)": {
        "details": "See {IERC165-supportsInterface}."
      },
      "transferOwnership(address)": {
        "details": "Transfers ownership of the contract to a new account (`newOwner`). Can only be called by the current owner. NOTE: Override this to add changing the"
      },
      "updateCollateralPrice()": {
        "details": "Use this function to get and update the price for the collateral token using the Tellor Oracle."
      },
      "updateDebtPrice()": {
        "details": "Use this function to get and update the price for the debt token using the Tellor Oracle."
      },
      "vaultBorrow(uint256)": {
        "details": "Use this function to allow users to borrow against their collateral",
        "params": {
          "amount": "to borrow"
        }
      },
      "vaultDeposit(uint256)": {
        "details": "Use this function to allow users to deposit collateral to the vault",
        "params": {
          "amount": "is the collateral amount"
        }
      },
      "vaultRepay(uint256)": {
        "details": "This function allows users to pay the interest and origination fee to the  vault before being able to withdraw",
        "params": {
          "amount": "owed"
        }
      },
      "vaultWithdraw(uint256)": {
        "details": "Allows users to withdraw their collateral from the vault",
        "params": {
          "amount": "withdrawn"
        }
      }
    },
    "title": "Bank This contract allows the owner to deposit reserves(debt token), earn interest and origination fees from users that borrow against their collateral. The oracle for Bank is Tellor.",
    "version": 1
  },
  "opcodes": "PUSH1 0x80 PUSH1 0x40 MSTORE CALLVALUE DUP1 ISZERO PUSH2 0x10 JUMPI PUSH1 0x0 DUP1 REVERT JUMPDEST POP PUSH1 0x4 CALLDATASIZE LT PUSH2 0x326 JUMPI PUSH1 0x0 CALLDATALOAD PUSH1 0xE0 SHR DUP1 PUSH4 0x685A5808 GT PUSH2 0x1B8 JUMPI DUP1 PUSH4 0xB71D7A6E GT PUSH2 0x104 JUMPI DUP1 PUSH4 0xDD8755F2 GT PUSH2 0xA2 JUMPI DUP1 PUSH4 0xF327E324 GT PUSH2 0x7C JUMPI DUP1 PUSH4 0xF327E324 EQ PUSH2 0x6DC JUMPI DUP1 PUSH4 0xF91614EB EQ PUSH2 0x6E4 JUMPI DUP1 PUSH4 0xFB839DDA EQ PUSH2 0x6EC JUMPI DUP1 PUSH4 0xFC2E39A6 EQ PUSH2 0x6FF JUMPI PUSH1 0x0 DUP1 REVERT JUMPDEST DUP1 PUSH4 0xDD8755F2 EQ PUSH2 0x6A3 JUMPI DUP1 PUSH4 0xEC5E5E7D EQ PUSH2 0x6B6 JUMPI DUP1 PUSH4 0xF2FDE38B EQ PUSH2 0x6C9 JUMPI PUSH1 0x0 DUP1 REVERT JUMPDEST DUP1 PUSH4 0xCA15C873 GT PUSH2 0xDE JUMPI DUP1 PUSH4 0xCA15C873 EQ PUSH2 0x664 JUMPI DUP1 PUSH4 0xCB765C1D EQ PUSH2 0x677 JUMPI DUP1 PUSH4 0xD267974C EQ PUSH2 0x67F JUMPI DUP1 PUSH4 0xD547741F EQ PUSH2 0x690 JUMPI PUSH1 0x0 DUP1 REVERT JUMPDEST DUP1 PUSH4 0xB71D7A6E EQ PUSH2 0x641 JUMPI DUP1 PUSH4 0xC14D0454 EQ PUSH2 0x649 JUMPI DUP1 PUSH4 0xC969AC06 EQ PUSH2 0x65C JUMPI PUSH1 0x0 DUP1 REVERT JUMPDEST DUP1 PUSH4 0x8CDCC955 GT PUSH2 0x171 JUMPI DUP1 PUSH4 0x91D14854 GT PUSH2 0x14B JUMPI DUP1 PUSH4 0x91D14854 EQ PUSH2 0x5C8 JUMPI DUP1 PUSH4 0xA217FDDF EQ PUSH2 0x5DB JUMPI DUP1 PUSH4 0xA622EE7C EQ PUSH2 0x5E3 JUMPI DUP1 PUSH4 0xA860988C EQ PUSH2 0x62C JUMPI PUSH1 0x0 DUP1 REVERT JUMPDEST DUP1 PUSH4 0x8CDCC955 EQ PUSH2 0x591 JUMPI DUP1 PUSH4 0x8DA5CB5B EQ PUSH2 0x5A4 JUMPI DUP1 PUSH4 0x9010D07C EQ PUSH2 0x5B5 JUMPI PUSH1 0x0 DUP1 REVERT JUMPDEST DUP1 PUSH4 0x685A5808 EQ PUSH2 0x532 JUMPI DUP1 PUSH4 0x6D483FE6 EQ PUSH2 0x54A JUMPI DUP1 PUSH4 0x70C12F1E EQ PUSH2 0x55B JUMPI DUP1 PUSH4 0x7649B938 EQ PUSH2 0x56E JUMPI DUP1 PUSH4 0x85B4E543 EQ PUSH2 0x581 JUMPI DUP1 PUSH4 0x86EF5738 EQ PUSH2 0x589 JUMPI PUSH1 0x0 DUP1 REVERT JUMPDEST DUP1 PUSH4 0x36568ABE GT PUSH2 0x277 JUMPI DUP1 PUSH4 0x45FD80E4 GT PUSH2 0x230 JUMPI DUP1 PUSH4 0x4FD88951 GT PUSH2 0x20A JUMPI DUP1 PUSH4 0x4FD88951 EQ PUSH2 0x4FC JUMPI DUP1 PUSH4 0x5257B566 EQ PUSH2 0x50F JUMPI DUP1 PUSH4 0x53388F44 EQ PUSH2 0x517 JUMPI DUP1 PUSH4 0x5729B394 EQ PUSH2 0x51F JUMPI PUSH1 0x0 DUP1 REVERT JUMPDEST DUP1 PUSH4 0x45FD80E4 EQ PUSH2 0x4CE JUMPI DUP1 PUSH4 0x494F4188 EQ PUSH2 0x4D6 JUMPI DUP1 PUSH4 0x4B272D9A EQ PUSH2 0x4E9 JUMPI PUSH1 0x0 DUP1 REVERT JUMPDEST DUP1 PUSH4 0x36568ABE EQ PUSH2 0x43D JUMPI DUP1 PUSH4 0x38507FF5 EQ PUSH2 0x450 JUMPI DUP1 PUSH4 0x3F60D799 EQ PUSH2 0x463 JUMPI DUP1 PUSH4 0x3FCAD964 EQ PUSH2 0x478 JUMPI DUP1 PUSH4 0x4032B72B EQ PUSH2 0x4A8 JUMPI DUP1 PUSH4 0x435726C4 EQ PUSH2 0x4BB JUMPI PUSH1 0x0 DUP1 REVERT JUMPDEST DUP1 PUSH4 0x1E522B29 GT PUSH2 0x2E4 JUMPI DUP1 PUSH4 0x2F865568 GT PUSH2 0x2BE JUMPI DUP1 PUSH4 0x2F865568 EQ PUSH2 0x3E8 JUMPI DUP1 PUSH4 0x3149CB14 EQ PUSH2 0x3FB JUMPI DUP1 PUSH4 0x317C9E42 EQ PUSH2 0x420 JUMPI DUP1 PUSH4 0x364BC15A EQ PUSH2 0x428 JUMPI PUSH1 0x0 DUP1 REVERT JUMPDEST DUP1 PUSH4 0x1E522B29 EQ PUSH2 0x3AA JUMPI DUP1 PUSH4 0x248A9CA3 EQ PUSH2 0x3B2 JUMPI DUP1 PUSH4 0x2F2FF15D EQ PUSH2 0x3D5 JUMPI PUSH1 0x0 DUP1 REVERT JUMPDEST DUP1 PUSH3 0x91A446 EQ PUSH2 0x32B JUMPI DUP1 PUSH4 0x1FFC9A7 EQ PUSH2 0x340 JUMPI DUP1 PUSH4 0x8DCD7C6 EQ PUSH2 0x368 JUMPI DUP1 PUSH4 0x15143950 EQ PUSH2 0x37A JUMPI DUP1 PUSH4 0x17D7DE7C EQ PUSH2 0x382 JUMPI DUP1 PUSH4 0x1B9084B4 EQ PUSH2 0x397 JUMPI JUMPDEST PUSH1 0x0 DUP1 REVERT JUMPDEST PUSH2 0x33E PUSH2 0x339 CALLDATASIZE PUSH1 0x4 PUSH2 0x270E JUMP JUMPDEST PUSH2 0x707 JUMP JUMPDEST STOP JUMPDEST PUSH2 0x353 PUSH2 0x34E CALLDATASIZE PUSH1 0x4 PUSH2 0x2727 JUMP JUMPDEST PUSH2 0x7A4 JUMP JUMPDEST PUSH1 0x40 MLOAD SWAP1 ISZERO ISZERO DUP2 MSTORE PUSH1 0x20 ADD JUMPDEST PUSH1 0x40 MLOAD DUP1 SWAP2 SUB SWAP1 RETURN JUMPDEST PUSH1 0x5 SLOAD JUMPDEST PUSH1 0x40 MLOAD SWAP1 DUP2 MSTORE PUSH1 0x20 ADD PUSH2 0x35F JUMP JUMPDEST PUSH1 0xA SLOAD PUSH2 0x36C JUMP JUMPDEST PUSH2 0x38A PUSH2 0x7CF JUMP JUMPDEST PUSH1 0x40 MLOAD PUSH2 0x35F SWAP2 SWAP1 PUSH2 0x277D JUMP JUMPDEST PUSH2 0x36C PUSH2 0x3A5 CALLDATASIZE PUSH1 0x4 PUSH2 0x27D0 JUMP JUMPDEST PUSH2 0x861 JUMP JUMPDEST PUSH1 0x14 SLOAD PUSH2 0x36C JUMP JUMPDEST PUSH2 0x36C PUSH2 0x3C0 CALLDATASIZE PUSH1 0x4 PUSH2 0x270E JUMP JUMPDEST PUSH1 0x0 SWAP1 DUP2 MSTORE PUSH1 0x18 PUSH1 0x20 MSTORE PUSH1 0x40 SWAP1 KECCAK256 PUSH1 0x1 ADD SLOAD SWAP1 JUMP JUMPDEST PUSH2 0x33E PUSH2 0x3E3 CALLDATASIZE PUSH1 0x4 PUSH2 0x27ED JUMP JUMPDEST PUSH2 0x90D JUMP JUMPDEST PUSH2 0x33E PUSH2 0x3F6 CALLDATASIZE PUSH1 0x4 PUSH2 0x27D0 JUMP JUMPDEST PUSH2 0x937 JUMP JUMPDEST PUSH1 0x4D SLOAD PUSH1 0x1 PUSH1 0x1 PUSH1 0xA0 SHL SUB AND JUMPDEST PUSH1 0x40 MLOAD PUSH1 0x1 PUSH1 0x1 PUSH1 0xA0 SHL SUB SWAP1 SWAP2 AND DUP2 MSTORE PUSH1 0x20 ADD PUSH2 0x35F JUMP JUMPDEST PUSH1 0xB SLOAD PUSH2 0x36C JUMP JUMPDEST PUSH2 0x36C PUSH1 0x0 DUP1 MLOAD PUSH1 0x20 PUSH2 0x2BC2 DUP4 CODECOPY DUP2 MLOAD SWAP2 MSTORE DUP2 JUMP JUMPDEST PUSH2 0x33E PUSH2 0x44B CALLDATASIZE PUSH1 0x4 PUSH2 0x27ED JUMP JUMPDEST PUSH2 0xBB1 JUMP JUMPDEST PUSH2 0x33E PUSH2 0x45E CALLDATASIZE PUSH1 0x4 PUSH2 0x281D JUMP JUMPDEST PUSH2 0xC2F JUMP JUMPDEST PUSH2 0x36C PUSH1 0x0 DUP1 MLOAD PUSH1 0x20 PUSH2 0x2BA2 DUP4 CODECOPY DUP2 MLOAD SWAP2 MSTORE DUP2 JUMP JUMPDEST PUSH2 0x48B PUSH2 0x486 CALLDATASIZE PUSH1 0x4 PUSH2 0x270E JUMP JUMPDEST PUSH2 0xCC5 JUMP JUMPDEST PUSH1 0x40 DUP1 MLOAD SWAP4 ISZERO ISZERO DUP5 MSTORE PUSH1 0x20 DUP5 ADD SWAP3 SWAP1 SWAP3 MSTORE SWAP1 DUP3 ADD MSTORE PUSH1 0x60 ADD PUSH2 0x35F JUMP JUMPDEST PUSH2 0x33E PUSH2 0x4B6 CALLDATASIZE PUSH1 0x4 PUSH2 0x27D0 JUMP JUMPDEST PUSH2 0xE61 JUMP JUMPDEST PUSH2 0x33E PUSH2 0x4C9 CALLDATASIZE PUSH1 0x4 PUSH2 0x270E JUMP JUMPDEST PUSH2 0xECA JUMP JUMPDEST PUSH2 0x33E PUSH2 0xFD0 JUMP JUMPDEST PUSH2 0x33E PUSH2 0x4E4 CALLDATASIZE PUSH1 0x4 PUSH2 0x27D0 JUMP JUMPDEST PUSH2 0x109D JUMP JUMPDEST PUSH2 0x33E PUSH2 0x4F7 CALLDATASIZE PUSH1 0x4 PUSH2 0x27D0 JUMP JUMPDEST PUSH2 0x10B5 JUMP JUMPDEST PUSH2 0x33E PUSH2 0x50A CALLDATASIZE PUSH1 0x4 PUSH2 0x270E JUMP JUMPDEST PUSH2 0x1131 JUMP JUMPDEST PUSH1 0x11 SLOAD PUSH2 0x36C JUMP JUMPDEST PUSH1 0xE SLOAD PUSH2 0x36C JUMP JUMPDEST PUSH2 0x33E PUSH2 0x52D CALLDATASIZE PUSH1 0x4 PUSH2 0x270E JUMP JUMPDEST PUSH2 0x13EC JUMP JUMPDEST CALLER PUSH1 0x0 SWAP1 DUP2 MSTORE PUSH1 0x2 PUSH1 0x20 MSTORE PUSH1 0x40 SWAP1 KECCAK256 PUSH1 0x1 ADD SLOAD PUSH2 0x36C JUMP JUMPDEST PUSH1 0x9 SLOAD PUSH1 0x1 PUSH1 0x1 PUSH1 0xA0 SHL SUB AND PUSH2 0x408 JUMP JUMPDEST PUSH2 0x33E PUSH2 0x569 CALLDATASIZE PUSH1 0x4 PUSH2 0x286E JUMP JUMPDEST PUSH2 0x149A JUMP JUMPDEST PUSH2 0x33E PUSH2 0x57C CALLDATASIZE PUSH1 0x4 PUSH2 0x270E JUMP JUMPDEST PUSH2 0x15C8 JUMP JUMPDEST PUSH2 0x33E PUSH2 0x174E JUMP JUMPDEST PUSH1 0x13 SLOAD PUSH2 0x36C JUMP JUMPDEST PUSH2 0x33E PUSH2 0x59F CALLDATASIZE PUSH1 0x4 PUSH2 0x27D0 JUMP JUMPDEST PUSH2 0x1815 JUMP JUMPDEST PUSH1 0x0 SLOAD PUSH1 0x1 PUSH1 0x1 PUSH1 0xA0 SHL SUB AND PUSH2 0x408 JUMP JUMPDEST PUSH2 0x408 PUSH2 0x5C3 CALLDATASIZE PUSH1 0x4 PUSH2 0x2984 JUMP JUMPDEST PUSH2 0x182D JUMP JUMPDEST PUSH2 0x353 PUSH2 0x5D6 CALLDATASIZE PUSH1 0x4 PUSH2 0x27ED JUMP JUMPDEST PUSH2 0x184C JUMP JUMPDEST PUSH2 0x36C PUSH1 0x0 DUP2 JUMP JUMPDEST PUSH2 0x611 PUSH2 0x5F1 CALLDATASIZE PUSH1 0x4 PUSH2 0x27D0 JUMP JUMPDEST PUSH1 0x2 PUSH1 0x20 DUP2 SWAP1 MSTORE PUSH1 0x0 SWAP2 DUP3 MSTORE PUSH1 0x40 SWAP1 SWAP2 KECCAK256 DUP1 SLOAD PUSH1 0x1 DUP3 ADD SLOAD SWAP2 SWAP1 SWAP3 ADD SLOAD DUP4 JUMP JUMPDEST PUSH1 0x40 DUP1 MLOAD SWAP4 DUP5 MSTORE PUSH1 0x20 DUP5 ADD SWAP3 SWAP1 SWAP3 MSTORE SWAP1 DUP3 ADD MSTORE PUSH1 0x60 ADD PUSH2 0x35F JUMP JUMPDEST CALLER PUSH1 0x0 SWAP1 DUP2 MSTORE PUSH1 0x2 PUSH1 0x20 MSTORE PUSH1 0x40 SWAP1 KECCAK256 SLOAD PUSH2 0x36C JUMP JUMPDEST PUSH2 0x36C PUSH2 0x1877 JUMP JUMPDEST PUSH2 0x33E PUSH2 0x657 CALLDATASIZE PUSH1 0x4 PUSH2 0x281D JUMP JUMPDEST PUSH2 0x1920 JUMP JUMPDEST PUSH1 0x4 SLOAD PUSH2 0x36C JUMP JUMPDEST PUSH2 0x36C PUSH2 0x672 CALLDATASIZE PUSH1 0x4 PUSH2 0x270E JUMP JUMPDEST PUSH2 0x19B6 JUMP JUMPDEST PUSH1 0x10 SLOAD PUSH2 0x36C JUMP JUMPDEST PUSH1 0x3 SLOAD PUSH1 0x1 PUSH1 0x1 PUSH1 0xA0 SHL SUB AND PUSH2 0x408 JUMP JUMPDEST PUSH2 0x33E PUSH2 0x69E CALLDATASIZE PUSH1 0x4 PUSH2 0x27ED JUMP JUMPDEST PUSH2 0x19CD JUMP JUMPDEST PUSH2 0x33E PUSH2 0x6B1 CALLDATASIZE PUSH1 0x4 PUSH2 0x27D0 JUMP JUMPDEST PUSH2 0x19F2 JUMP JUMPDEST PUSH2 0x33E PUSH2 0x6C4 CALLDATASIZE PUSH1 0x4 PUSH2 0x270E JUMP JUMPDEST PUSH2 0x1A58 JUMP JUMPDEST PUSH2 0x33E PUSH2 0x6D7 CALLDATASIZE PUSH1 0x4 PUSH2 0x27D0 JUMP JUMPDEST PUSH2 0x1BD6 JUMP JUMPDEST PUSH1 0x8 SLOAD PUSH2 0x36C JUMP JUMPDEST PUSH1 0xF SLOAD PUSH2 0x36C JUMP JUMPDEST PUSH2 0x33E PUSH2 0x6FA CALLDATASIZE PUSH1 0x4 PUSH2 0x270E JUMP JUMPDEST PUSH2 0x1C41 JUMP JUMPDEST PUSH1 0x12 SLOAD PUSH2 0x36C JUMP JUMPDEST PUSH1 0x0 PUSH2 0x712 DUP2 PUSH2 0x1DFE JUMP JUMPDEST PUSH1 0x0 DUP3 GT PUSH2 0x73B JUMPI PUSH1 0x40 MLOAD PUSH3 0x461BCD PUSH1 0xE5 SHL DUP2 MSTORE PUSH1 0x4 ADD PUSH2 0x732 SWAP1 PUSH2 0x29A6 JUMP JUMPDEST PUSH1 0x40 MLOAD DUP1 SWAP2 SUB SWAP1 REVERT JUMPDEST DUP2 PUSH1 0xF PUSH1 0x1 ADD PUSH1 0x0 DUP3 DUP3 SLOAD PUSH2 0x750 SWAP2 SWAP1 PUSH2 0x29E7 JUMP JUMPDEST SWAP1 SWAP2 SSTORE POP POP PUSH1 0x3 SLOAD PUSH2 0x76D SWAP1 PUSH1 0x1 PUSH1 0x1 PUSH1 0xA0 SHL SUB AND CALLER ADDRESS DUP6 PUSH2 0x1E08 JUMP JUMPDEST PUSH1 0x40 MLOAD DUP3 DUP2 MSTORE PUSH32 0x71EB3E5DF75EF293B81B4C7B38DB51F7A6CEC007D12529CB74D4EAFB7FA53222 SWAP1 PUSH1 0x20 ADD PUSH1 0x40 MLOAD DUP1 SWAP2 SUB SWAP1 LOG1 POP POP JUMP JUMPDEST PUSH1 0x0 PUSH1 0x1 PUSH1 0x1 PUSH1 0xE0 SHL SUB NOT DUP3 AND PUSH4 0x5A05180F PUSH1 0xE0 SHL EQ DUP1 PUSH2 0x7C9 JUMPI POP PUSH2 0x7C9 DUP3 PUSH2 0x1E79 JUMP JUMPDEST SWAP3 SWAP2 POP POP JUMP JUMPDEST PUSH1 0x60 PUSH1 0x1 DUP1 SLOAD PUSH2 0x7DE SWAP1 PUSH2 0x29FF JUMP JUMPDEST DUP1 PUSH1 0x1F ADD PUSH1 0x20 DUP1 SWAP2 DIV MUL PUSH1 0x20 ADD PUSH1 0x40 MLOAD SWAP1 DUP2 ADD PUSH1 0x40 MSTORE DUP1 SWAP3 SWAP2 SWAP1 DUP2 DUP2 MSTORE PUSH1 0x20 ADD DUP3 DUP1 SLOAD PUSH2 0x80A SWAP1 PUSH2 0x29FF JUMP JUMPDEST DUP1 ISZERO PUSH2 0x857 JUMPI DUP1 PUSH1 0x1F LT PUSH2 0x82C JUMPI PUSH2 0x100 DUP1 DUP4 SLOAD DIV MUL DUP4 MSTORE SWAP2 PUSH1 0x20 ADD SWAP2 PUSH2 0x857 JUMP JUMPDEST DUP3 ADD SWAP2 SWAP1 PUSH1 0x0 MSTORE PUSH1 0x20 PUSH1 0x0 KECCAK256 SWAP1 JUMPDEST DUP2 SLOAD DUP2 MSTORE SWAP1 PUSH1 0x1 ADD SWAP1 PUSH1 0x20 ADD DUP1 DUP4 GT PUSH2 0x83A JUMPI DUP3 SWAP1 SUB PUSH1 0x1F AND DUP3 ADD SWAP2 JUMPDEST POP POP POP POP POP SWAP1 POP SWAP1 JUMP JUMPDEST PUSH1 0x1 PUSH1 0x1 PUSH1 0xA0 SHL SUB DUP2 AND PUSH1 0x0 SWAP1 DUP2 MSTORE PUSH1 0x2 PUSH1 0x20 MSTORE PUSH1 0x40 DUP2 KECCAK256 PUSH1 0x1 ADD SLOAD PUSH2 0x889 JUMPI POP PUSH1 0x0 SWAP2 SWAP1 POP JUMP JUMPDEST PUSH1 0x5 SLOAD PUSH1 0x4 SLOAD PUSH1 0x1 PUSH1 0x1 PUSH1 0xA0 SHL SUB DUP5 AND PUSH1 0x0 SWAP1 DUP2 MSTORE PUSH1 0x2 PUSH1 0x20 MSTORE PUSH1 0x40 SWAP1 KECCAK256 PUSH1 0x1 ADD SLOAD PUSH2 0x8B5 SWAP2 SWAP1 PUSH2 0x2A3A JUMP JUMPDEST PUSH2 0x8BF SWAP2 SWAP1 PUSH2 0x2A59 JUMP JUMPDEST PUSH1 0xB SLOAD PUSH1 0xA SLOAD PUSH1 0x1 PUSH1 0x1 PUSH1 0xA0 SHL SUB DUP6 AND PUSH1 0x0 SWAP1 DUP2 MSTORE PUSH1 0x2 PUSH1 0x20 MSTORE PUSH1 0x40 SWAP1 KECCAK256 SLOAD PUSH2 0x8E8 SWAP2 SWAP1 PUSH2 0x2A3A JUMP JUMPDEST PUSH2 0x8F2 SWAP2 SWAP1 PUSH2 0x2A59 JUMP JUMPDEST PUSH2 0x8FE SWAP1 PUSH2 0x2710 PUSH2 0x2A3A JUMP JUMPDEST PUSH2 0x7C9 SWAP2 SWAP1 PUSH2 0x2A59 JUMP JUMPDEST SWAP2 SWAP1 POP JUMP JUMPDEST PUSH1 0x0 DUP3 DUP2 MSTORE PUSH1 0x18 PUSH1 0x20 MSTORE PUSH1 0x40 SWAP1 KECCAK256 PUSH1 0x1 ADD SLOAD PUSH2 0x928 DUP2 PUSH2 0x1DFE JUMP JUMPDEST PUSH2 0x932 DUP4 DUP4 PUSH2 0x1F0B JUMP JUMPDEST POP POP POP JUMP JUMPDEST PUSH2 0x94F PUSH1 0x0 DUP1 MLOAD PUSH1 0x20 PUSH2 0x2BC2 DUP4 CODECOPY DUP2 MLOAD SWAP2 MSTORE CALLER PUSH2 0x184C JUMP JUMPDEST DUP1 PUSH2 0x960 JUMPI POP PUSH2 0x960 PUSH1 0x0 CALLER PUSH2 0x184C JUMP JUMPDEST PUSH2 0x9A2 JUMPI PUSH1 0x40 MLOAD PUSH3 0x461BCD PUSH1 0xE5 SHL DUP2 MSTORE PUSH1 0x20 PUSH1 0x4 DUP3 ADD MSTORE PUSH1 0x13 PUSH1 0x24 DUP3 ADD MSTORE PUSH19 0x3737BA1035B2B2B832B91037B91030B236B4B7 PUSH1 0x69 SHL PUSH1 0x44 DUP3 ADD MSTORE PUSH1 0x64 ADD PUSH2 0x732 JUMP JUMPDEST PUSH1 0x13 SLOAD PUSH2 0x9B0 SWAP1 PUSH1 0x64 PUSH2 0x2A3A JUMP JUMPDEST PUSH2 0x9B9 DUP3 PUSH2 0x861 JUMP JUMPDEST LT PUSH2 0xA06 JUMPI PUSH1 0x40 MLOAD PUSH3 0x461BCD PUSH1 0xE5 SHL DUP2 MSTORE PUSH1 0x20 PUSH1 0x4 DUP3 ADD MSTORE PUSH1 0x1D PUSH1 0x24 DUP3 ADD MSTORE PUSH32 0x5641554C54204E4F5420554E444552434F4C4C41544552414C495A4544000000 PUSH1 0x44 DUP3 ADD MSTORE PUSH1 0x64 ADD PUSH2 0x732 JUMP JUMPDEST PUSH1 0x14 SLOAD PUSH1 0x1 PUSH1 0x1 PUSH1 0xA0 SHL SUB DUP3 AND PUSH1 0x0 SWAP1 DUP2 MSTORE PUSH1 0x2 PUSH1 0x20 MSTORE PUSH1 0x40 DUP2 KECCAK256 PUSH1 0x1 ADD SLOAD SWAP1 SWAP2 PUSH1 0x64 SWAP2 DUP3 SWAP2 SWAP1 PUSH2 0xA37 SWAP1 DUP4 PUSH2 0x2A3A JUMP JUMPDEST PUSH2 0xA41 SWAP2 SWAP1 PUSH2 0x2A3A JUMP JUMPDEST PUSH2 0xA4B SWAP2 SWAP1 PUSH2 0x2A59 JUMP JUMPDEST PUSH2 0xA55 SWAP2 SWAP1 PUSH2 0x2A59 JUMP JUMPDEST PUSH1 0x1 PUSH1 0x1 PUSH1 0xA0 SHL SUB DUP4 AND PUSH1 0x0 SWAP1 DUP2 MSTORE PUSH1 0x2 PUSH1 0x20 MSTORE PUSH1 0x40 SWAP1 KECCAK256 PUSH1 0x1 ADD SLOAD PUSH2 0xA7B SWAP2 SWAP1 PUSH2 0x29E7 JUMP JUMPDEST PUSH1 0xA SLOAD PUSH1 0x4 SLOAD SWAP2 SWAP3 POP PUSH1 0x0 SWAP2 PUSH2 0xA91 SWAP1 DUP5 PUSH2 0x2A3A JUMP JUMPDEST PUSH2 0xA9B SWAP2 SWAP1 PUSH2 0x2A59 JUMP JUMPDEST PUSH1 0x1 PUSH1 0x1 PUSH1 0xA0 SHL SUB DUP5 AND PUSH1 0x0 SWAP1 DUP2 MSTORE PUSH1 0x2 PUSH1 0x20 MSTORE PUSH1 0x40 SWAP1 KECCAK256 SLOAD SWAP1 SWAP2 POP DUP2 GT ISZERO PUSH2 0xAD9 JUMPI POP PUSH1 0x1 PUSH1 0x1 PUSH1 0xA0 SHL SUB DUP3 AND PUSH1 0x0 SWAP1 DUP2 MSTORE PUSH1 0x2 PUSH1 0x20 MSTORE PUSH1 0x40 SWAP1 KECCAK256 SLOAD JUMPDEST PUSH1 0x0 PUSH2 0xAE6 PUSH1 0xA DUP4 PUSH2 0x2A59 JUMP JUMPDEST SWAP1 POP PUSH2 0xAF2 DUP2 DUP4 PUSH2 0x2A7B JUMP JUMPDEST PUSH1 0xF DUP1 SLOAD PUSH1 0x0 SWAP1 PUSH2 0xB04 SWAP1 DUP5 SWAP1 PUSH2 0x29E7 JUMP JUMPDEST SWAP1 SWAP2 SSTORE POP POP PUSH1 0x1 PUSH1 0x1 PUSH1 0xA0 SHL SUB DUP5 AND PUSH1 0x0 SWAP1 DUP2 MSTORE PUSH1 0x2 PUSH1 0x20 MSTORE PUSH1 0x40 DUP2 KECCAK256 DUP1 SLOAD DUP5 SWAP3 SWAP1 PUSH2 0xB31 SWAP1 DUP5 SWAP1 PUSH2 0x2A7B JUMP JUMPDEST SWAP1 SWAP2 SSTORE POP POP PUSH1 0x1 PUSH1 0x1 PUSH1 0xA0 SHL SUB DUP1 DUP6 AND PUSH1 0x0 SWAP1 DUP2 MSTORE PUSH1 0x2 PUSH1 0x20 MSTORE PUSH1 0x40 DUP2 KECCAK256 PUSH1 0x1 ADD SSTORE PUSH1 0x4D SLOAD PUSH1 0x9 SLOAD PUSH2 0xB68 SWAP3 SWAP1 DUP2 AND SWAP2 AND DUP4 PUSH2 0x1F2D JUMP JUMPDEST DUP4 PUSH1 0x1 PUSH1 0x1 PUSH1 0xA0 SHL SUB AND PUSH32 0x6DD29D11F8D1BCDBD79DA21BF92895417DCC2F8886B3DB11C8A4CE00B73DE9D0 DUP5 PUSH1 0x40 MLOAD PUSH2 0xBA3 SWAP2 DUP2 MSTORE PUSH1 0x20 ADD SWAP1 JUMP JUMPDEST PUSH1 0x40 MLOAD DUP1 SWAP2 SUB SWAP1 LOG2 POP POP POP POP JUMP JUMPDEST PUSH1 0x1 PUSH1 0x1 PUSH1 0xA0 SHL SUB DUP2 AND CALLER EQ PUSH2 0xC21 JUMPI PUSH1 0x40 MLOAD PUSH3 0x461BCD PUSH1 0xE5 SHL DUP2 MSTORE PUSH1 0x20 PUSH1 0x4 DUP3 ADD MSTORE PUSH1 0x2F PUSH1 0x24 DUP3 ADD MSTORE PUSH32 0x416363657373436F6E74726F6C3A2063616E206F6E6C792072656E6F756E6365 PUSH1 0x44 DUP3 ADD MSTORE PUSH15 0x103937B632B9903337B91039B2B633 PUSH1 0x89 SHL PUSH1 0x64 DUP3 ADD MSTORE PUSH1 0x84 ADD PUSH2 0x732 JUMP JUMPDEST PUSH2 0xC2B DUP3 DUP3 PUSH2 0x1F5D JUMP JUMPDEST POP POP JUMP JUMPDEST PUSH1 0x0 PUSH2 0xC3A DUP2 PUSH2 0x1DFE JUMP JUMPDEST PUSH1 0x9 SLOAD PUSH1 0x1 PUSH1 0x1 PUSH1 0xA0 SHL SUB AND ISZERO DUP1 ISZERO PUSH2 0xC5B JUMPI POP PUSH1 0x1 PUSH1 0x1 PUSH1 0xA0 SHL SUB DUP6 AND ISZERO ISZERO JUMPDEST PUSH2 0xC92 JUMPI PUSH1 0x40 MLOAD PUSH3 0x461BCD PUSH1 0xE5 SHL DUP2 MSTORE PUSH1 0x20 PUSH1 0x4 DUP3 ADD MSTORE PUSH1 0x8 PUSH1 0x24 DUP3 ADD MSTORE PUSH8 0x2173657461626C65 PUSH1 0xC0 SHL PUSH1 0x44 DUP3 ADD MSTORE PUSH1 0x64 ADD PUSH2 0x732 JUMP JUMPDEST POP PUSH1 0x9 DUP1 SLOAD PUSH1 0x1 PUSH1 0x1 PUSH1 0xA0 SHL SUB NOT AND PUSH1 0x1 PUSH1 0x1 PUSH1 0xA0 SHL SUB SWAP6 SWAP1 SWAP6 AND SWAP5 SWAP1 SWAP5 OR SWAP1 SWAP4 SSTORE PUSH1 0xA SWAP3 SWAP1 SWAP3 SSTORE PUSH1 0xB SWAP2 SWAP1 SWAP2 SSTORE PUSH1 0xC SSTORE JUMP JUMPDEST PUSH1 0x15 SLOAD PUSH1 0x40 MLOAD PUSH4 0x11BBB871 PUSH1 0xE2 SHL DUP2 MSTORE PUSH1 0x4 DUP2 ADD DUP4 SWAP1 MSTORE PUSH1 0x0 SWAP2 DUP3 SWAP2 DUP3 SWAP2 PUSH1 0x1 PUSH1 0x1 PUSH1 0xA0 SHL SUB AND SWAP1 DUP3 SWAP1 DUP3 SWAP1 PUSH4 0x46EEE1C4 SWAP1 PUSH1 0x24 ADD PUSH1 0x20 PUSH1 0x40 MLOAD DUP1 DUP4 SUB DUP2 DUP7 GAS STATICCALL ISZERO DUP1 ISZERO PUSH2 0xD17 JUMPI RETURNDATASIZE PUSH1 0x0 DUP1 RETURNDATACOPY RETURNDATASIZE PUSH1 0x0 REVERT JUMPDEST POP POP POP POP PUSH1 0x40 MLOAD RETURNDATASIZE PUSH1 0x1F NOT PUSH1 0x1F DUP3 ADD AND DUP3 ADD DUP1 PUSH1 0x40 MSTORE POP DUP2 ADD SWAP1 PUSH2 0xD3B SWAP2 SWAP1 PUSH2 0x2A92 JUMP JUMPDEST SWAP1 POP PUSH1 0x0 PUSH1 0x1 PUSH1 0x1 PUSH1 0xA0 SHL SUB DUP4 AND PUSH4 0x77FBB663 DUP9 PUSH2 0xD5A PUSH1 0x1 DUP7 PUSH2 0x2A7B JUMP JUMPDEST PUSH1 0x40 MLOAD PUSH1 0x1 PUSH1 0x1 PUSH1 0xE0 SHL SUB NOT PUSH1 0xE0 DUP6 SWAP1 SHL AND DUP2 MSTORE PUSH1 0x4 DUP2 ADD SWAP3 SWAP1 SWAP3 MSTORE PUSH1 0x24 DUP3 ADD MSTORE PUSH1 0x44 ADD PUSH1 0x20 PUSH1 0x40 MLOAD DUP1 DUP4 SUB DUP2 DUP7 GAS STATICCALL ISZERO DUP1 ISZERO PUSH2 0xD9B JUMPI RETURNDATASIZE PUSH1 0x0 DUP1 RETURNDATACOPY RETURNDATASIZE PUSH1 0x0 REVERT JUMPDEST POP POP POP POP PUSH1 0x40 MLOAD RETURNDATASIZE PUSH1 0x1F NOT PUSH1 0x1F DUP3 ADD AND DUP3 ADD DUP1 PUSH1 0x40 MSTORE POP DUP2 ADD SWAP1 PUSH2 0xDBF SWAP2 SWAP1 PUSH2 0x2A92 JUMP JUMPDEST PUSH1 0x40 MLOAD PUSH4 0x93FA4915 PUSH1 0xE0 SHL DUP2 MSTORE PUSH1 0x4 DUP2 ADD DUP10 SWAP1 MSTORE PUSH1 0x24 DUP2 ADD DUP3 SWAP1 MSTORE SWAP1 SWAP2 POP PUSH1 0x0 SWAP1 PUSH1 0x1 PUSH1 0x1 PUSH1 0xA0 SHL SUB DUP6 AND SWAP1 PUSH4 0x93FA4915 SWAP1 PUSH1 0x44 ADD PUSH1 0x20 PUSH1 0x40 MLOAD DUP1 DUP4 SUB DUP2 DUP7 GAS STATICCALL ISZERO DUP1 ISZERO PUSH2 0xE11 JUMPI RETURNDATASIZE PUSH1 0x0 DUP1 RETURNDATACOPY RETURNDATASIZE PUSH1 0x0 REVERT JUMPDEST POP POP POP POP PUSH1 0x40 MLOAD RETURNDATASIZE PUSH1 0x1F NOT PUSH1 0x1F DUP3 ADD AND DUP3 ADD DUP1 PUSH1 0x40 MSTORE POP DUP2 ADD SWAP1 PUSH2 0xE35 SWAP2 SWAP1 PUSH2 0x2A92 JUMP JUMPDEST SWAP1 POP DUP1 ISZERO PUSH2 0xE4D JUMPI PUSH1 0x1 SWAP7 POP SWAP5 POP SWAP3 POP PUSH2 0xE5A SWAP2 POP POP JUMP JUMPDEST POP PUSH1 0x0 SWAP6 POP DUP6 SWAP5 POP SWAP3 POP POP POP JUMPDEST SWAP2 SWAP4 SWAP1 SWAP3 POP JUMP JUMPDEST PUSH1 0x1 PUSH1 0x1 PUSH1 0xA0 SHL SUB DUP2 AND PUSH2 0xEAF JUMPI PUSH1 0x40 MLOAD PUSH3 0x461BCD PUSH1 0xE5 SHL DUP2 MSTORE PUSH1 0x20 PUSH1 0x4 DUP3 ADD MSTORE PUSH1 0x15 PUSH1 0x24 DUP3 ADD MSTORE PUSH21 0x1BDC195C985D1A5BDB881B9BDD08185B1B1BDDD959 PUSH1 0x5A SHL PUSH1 0x44 DUP3 ADD MSTORE PUSH1 0x64 ADD PUSH2 0x732 JUMP JUMPDEST PUSH2 0xEC7 PUSH1 0x0 DUP1 MLOAD PUSH1 0x20 PUSH2 0x2BC2 DUP4 CODECOPY DUP2 MLOAD SWAP2 MSTORE DUP3 PUSH2 0x90D JUMP JUMPDEST POP JUMP JUMPDEST PUSH1 0x0 PUSH2 0xED5 DUP2 PUSH2 0x1DFE JUMP JUMPDEST PUSH1 0xF SLOAD DUP3 GT ISZERO PUSH2 0xF27 JUMPI PUSH1 0x40 MLOAD PUSH3 0x461BCD PUSH1 0xE5 SHL DUP2 MSTORE PUSH1 0x20 PUSH1 0x4 DUP3 ADD DUP2 SWAP1 MSTORE PUSH1 0x24 DUP3 ADD MSTORE PUSH32 0x4E4F5420454E4F55474820434F4C4C41544552414C20494E2052455345525645 PUSH1 0x44 DUP3 ADD MSTORE PUSH1 0x64 ADD PUSH2 0x732 JUMP JUMPDEST PUSH1 0x0 PUSH2 0xF34 PUSH1 0xC8 DUP5 PUSH2 0x2A59 JUMP JUMPDEST SWAP1 POP DUP3 PUSH1 0xF PUSH1 0x0 ADD PUSH1 0x0 DUP3 DUP3 SLOAD PUSH2 0xF4B SWAP2 SWAP1 PUSH2 0x2A7B JUMP JUMPDEST SWAP1 SWAP2 SSTORE POP POP PUSH1 0x9 SLOAD PUSH1 0x40 MLOAD DUP5 DUP2 MSTORE PUSH1 0x1 PUSH1 0x1 PUSH1 0xA0 SHL SUB SWAP1 SWAP2 AND SWAP1 PUSH32 0x529AFC4538720FE0B3EADC40486369AB962002D72FEAD1387B300C66073E7BF SWAP1 PUSH1 0x20 ADD PUSH1 0x40 MLOAD DUP1 SWAP2 SUB SWAP1 LOG2 PUSH2 0xFB3 CALLER PUSH2 0xFA0 DUP4 DUP7 PUSH2 0x2A7B JUMP JUMPDEST PUSH1 0x9 SLOAD PUSH1 0x1 PUSH1 0x1 PUSH1 0xA0 SHL SUB AND SWAP2 SWAP1 PUSH2 0x1F2D JUMP JUMPDEST PUSH1 0x4D SLOAD PUSH1 0x9 SLOAD PUSH2 0x932 SWAP2 PUSH1 0x1 PUSH1 0x1 PUSH1 0xA0 SHL SUB SWAP2 DUP3 AND SWAP2 AND DUP4 PUSH2 0x1F2D JUMP JUMPDEST PUSH2 0xFE8 PUSH1 0x0 DUP1 MLOAD PUSH1 0x20 PUSH2 0x2BA2 DUP4 CODECOPY DUP2 MLOAD SWAP2 MSTORE CALLER PUSH2 0x184C JUMP JUMPDEST DUP1 PUSH2 0xFF9 JUMPI POP PUSH2 0xFF9 PUSH1 0x0 CALLER PUSH2 0x184C JUMP JUMPDEST PUSH2 0x1045 JUMPI PUSH1 0x40 MLOAD PUSH3 0x461BCD PUSH1 0xE5 SHL DUP2 MSTORE PUSH1 0x20 PUSH1 0x4 DUP3 ADD MSTORE PUSH1 0x1A PUSH1 0x24 DUP3 ADD MSTORE PUSH32 0x6E6F742070726963652075706461746572206F722061646D696E000000000000 PUSH1 0x44 DUP3 ADD MSTORE PUSH1 0x64 ADD PUSH2 0x732 JUMP JUMPDEST PUSH1 0x6 SLOAD PUSH2 0x1051 SWAP1 PUSH2 0xCC5 JUMP JUMPDEST PUSH1 0x8 SSTORE PUSH1 0x4 DUP2 SWAP1 SSTORE PUSH1 0x3 SLOAD PUSH1 0x40 MLOAD SWAP2 DUP3 MSTORE PUSH1 0x1 PUSH1 0x1 PUSH1 0xA0 SHL SUB AND SWAP2 POP PUSH32 0x64E6E7BD72B853C4E62FD6CEACA05A104700C70A4CB567C75C7F2242BA7F037C SWAP1 PUSH1 0x20 ADD JUMPDEST PUSH1 0x40 MLOAD DUP1 SWAP2 SUB SWAP1 LOG2 JUMP JUMPDEST PUSH2 0xEC7 PUSH1 0x0 DUP1 MLOAD PUSH1 0x20 PUSH2 0x2BC2 DUP4 CODECOPY DUP2 MLOAD SWAP2 MSTORE DUP3 PUSH2 0x19CD JUMP JUMPDEST PUSH1 0x4D SLOAD PUSH1 0x1 PUSH1 0x1 PUSH1 0xA0 SHL SUB AND CALLER EQ PUSH2 0x110F JUMPI PUSH1 0x40 MLOAD PUSH3 0x461BCD PUSH1 0xE5 SHL DUP2 MSTORE PUSH1 0x20 PUSH1 0x4 DUP3 ADD MSTORE PUSH1 0x19 PUSH1 0x24 DUP3 ADD MSTORE PUSH32 0x4953204E4F542042414E4B20464143544F5259204F574E455200000000000000 PUSH1 0x44 DUP3 ADD MSTORE PUSH1 0x64 ADD PUSH2 0x732 JUMP JUMPDEST PUSH1 0x4D DUP1 SLOAD PUSH1 0x1 PUSH1 0x1 PUSH1 0xA0 SHL SUB NOT AND PUSH1 0x1 PUSH1 0x1 PUSH1 0xA0 SHL SUB SWAP3 SWAP1 SWAP3 AND SWAP2 SWAP1 SWAP2 OR SWAP1 SSTORE JUMP JUMPDEST CALLER PUSH1 0x0 SWAP1 DUP2 MSTORE PUSH1 0x2 PUSH1 0x20 MSTORE PUSH1 0x40 SWAP1 KECCAK256 PUSH1 0x1 ADD SLOAD ISZERO PUSH2 0x1165 JUMPI PUSH2 0x1151 PUSH2 0x1877 JUMP JUMPDEST CALLER PUSH1 0x0 SWAP1 DUP2 MSTORE PUSH1 0x2 PUSH1 0x20 MSTORE PUSH1 0x40 SWAP1 KECCAK256 PUSH1 0x1 ADD SSTORE JUMPDEST PUSH1 0x13 SLOAD PUSH1 0x4 SLOAD PUSH1 0xA SLOAD CALLER PUSH1 0x0 SWAP1 DUP2 MSTORE PUSH1 0x2 PUSH1 0x20 MSTORE PUSH1 0x40 DUP2 KECCAK256 SLOAD SWAP1 SWAP4 SWAP3 SWAP2 PUSH2 0x118B SWAP2 PUSH2 0x2A3A JUMP JUMPDEST PUSH2 0x1195 SWAP2 SWAP1 PUSH2 0x2A59 JUMP JUMPDEST PUSH2 0x119F SWAP2 SWAP1 PUSH2 0x2A59 JUMP JUMPDEST PUSH2 0x11AA SWAP1 PUSH1 0x64 PUSH2 0x2A3A JUMP JUMPDEST PUSH1 0x5 SLOAD SWAP1 SWAP2 POP PUSH2 0x11BA SWAP1 DUP3 PUSH2 0x2A3A JUMP JUMPDEST PUSH1 0xB SLOAD SWAP1 SWAP2 POP PUSH2 0x11CA SWAP1 DUP3 PUSH2 0x2A59 JUMP JUMPDEST CALLER PUSH1 0x0 SWAP1 DUP2 MSTORE PUSH1 0x2 PUSH1 0x20 MSTORE PUSH1 0x40 SWAP1 KECCAK256 PUSH1 0x1 ADD SLOAD SWAP1 SWAP2 POP PUSH2 0x11EA SWAP1 DUP3 PUSH2 0x2A7B JUMP JUMPDEST PUSH1 0x12 SLOAD SWAP1 SWAP2 POP PUSH2 0x2710 SWAP1 PUSH2 0x11FE SWAP1 DUP5 PUSH2 0x2A3A JUMP JUMPDEST PUSH2 0x1208 SWAP2 SWAP1 PUSH2 0x2A59 JUMP JUMPDEST PUSH2 0x1212 SWAP1 DUP4 PUSH2 0x29E7 JUMP JUMPDEST CALLER PUSH1 0x0 SWAP1 DUP2 MSTORE PUSH1 0x2 PUSH1 0x20 MSTORE PUSH1 0x40 DUP2 KECCAK256 PUSH1 0x1 ADD DUP1 SLOAD SWAP1 SWAP2 SWAP1 PUSH2 0x1234 SWAP1 DUP5 SWAP1 PUSH2 0x29E7 JUMP JUMPDEST SWAP1 SWAP2 SSTORE POP POP CALLER PUSH1 0x0 SWAP1 DUP2 MSTORE PUSH1 0x2 PUSH1 0x20 MSTORE PUSH1 0x40 SWAP1 KECCAK256 PUSH1 0x1 ADD SLOAD DUP2 GT PUSH2 0x1292 JUMPI PUSH1 0x40 MLOAD PUSH3 0x461BCD PUSH1 0xE5 SHL DUP2 MSTORE PUSH1 0x20 PUSH1 0x4 DUP3 ADD MSTORE PUSH1 0x15 PUSH1 0x24 DUP3 ADD MSTORE PUSH21 0x1393D508115393D551D20810D3D313105511549053 PUSH1 0x5A SHL PUSH1 0x44 DUP3 ADD MSTORE PUSH1 0x64 ADD PUSH2 0x732 JUMP JUMPDEST PUSH1 0x3 SLOAD PUSH1 0x40 MLOAD PUSH4 0x70A08231 PUSH1 0xE0 SHL DUP2 MSTORE ADDRESS PUSH1 0x4 DUP3 ADD MSTORE PUSH1 0x1 PUSH1 0x1 PUSH1 0xA0 SHL SUB SWAP1 SWAP2 AND SWAP1 PUSH4 0x70A08231 SWAP1 PUSH1 0x24 ADD PUSH1 0x20 PUSH1 0x40 MLOAD DUP1 DUP4 SUB DUP2 DUP7 GAS STATICCALL ISZERO DUP1 ISZERO PUSH2 0x12DA JUMPI RETURNDATASIZE PUSH1 0x0 DUP1 RETURNDATACOPY RETURNDATASIZE PUSH1 0x0 REVERT JUMPDEST POP POP POP POP PUSH1 0x40 MLOAD RETURNDATASIZE PUSH1 0x1F NOT PUSH1 0x1F DUP3 ADD AND DUP3 ADD DUP1 PUSH1 0x40 MSTORE POP DUP2 ADD SWAP1 PUSH2 0x12FE SWAP2 SWAP1 PUSH2 0x2A92 JUMP JUMPDEST DUP3 GT ISZERO PUSH2 0x1343 JUMPI PUSH1 0x40 MLOAD PUSH3 0x461BCD PUSH1 0xE5 SHL DUP2 MSTORE PUSH1 0x20 PUSH1 0x4 DUP3 ADD MSTORE PUSH1 0x13 PUSH1 0x24 DUP3 ADD MSTORE PUSH19 0x4E4F5420454E4F554748205245534552564553 PUSH1 0x68 SHL PUSH1 0x44 DUP3 ADD MSTORE PUSH1 0x64 ADD PUSH2 0x732 JUMP JUMPDEST PUSH1 0x16 SLOAD CALLER PUSH1 0x0 SWAP1 DUP2 MSTORE PUSH1 0x2 PUSH1 0x20 DUP2 SWAP1 MSTORE PUSH1 0x40 SWAP1 SWAP2 KECCAK256 ADD SLOAD PUSH2 0x1364 SWAP1 TIMESTAMP PUSH2 0x2A7B JUMP JUMPDEST GT ISZERO PUSH2 0x1381 JUMPI CALLER PUSH1 0x0 SWAP1 DUP2 MSTORE PUSH1 0x2 PUSH1 0x20 DUP2 SWAP1 MSTORE PUSH1 0x40 SWAP1 SWAP2 KECCAK256 TIMESTAMP SWAP2 ADD SSTORE JUMPDEST DUP2 PUSH1 0xF PUSH1 0x1 ADD PUSH1 0x0 DUP3 DUP3 SLOAD PUSH2 0x1396 SWAP2 SWAP1 PUSH2 0x2A7B JUMP JUMPDEST SWAP1 SWAP2 SSTORE POP POP PUSH1 0x3 SLOAD PUSH2 0x13B2 SWAP1 PUSH1 0x1 PUSH1 0x1 PUSH1 0xA0 SHL SUB AND CALLER DUP5 PUSH2 0x1F2D JUMP JUMPDEST PUSH1 0x40 MLOAD DUP3 DUP2 MSTORE CALLER SWAP1 PUSH32 0x232862A021D33EA4A70F5D509B754F0F6986AAA0FFDD5C7DB4910422AFC768A SWAP1 PUSH1 0x20 ADD JUMPDEST PUSH1 0x40 MLOAD DUP1 SWAP2 SUB SWAP1 LOG2 POP POP JUMP JUMPDEST PUSH1 0x0 DUP2 GT PUSH2 0x140C JUMPI PUSH1 0x40 MLOAD PUSH3 0x461BCD PUSH1 0xE5 SHL DUP2 MSTORE PUSH1 0x4 ADD PUSH2 0x732 SWAP1 PUSH2 0x29A6 JUMP JUMPDEST CALLER PUSH1 0x0 SWAP1 DUP2 MSTORE PUSH1 0x2 PUSH1 0x20 MSTORE PUSH1 0x40 DUP2 KECCAK256 DUP1 SLOAD DUP4 SWAP3 SWAP1 PUSH2 0x142B SWAP1 DUP5 SWAP1 PUSH2 0x29E7 JUMP JUMPDEST SWAP1 SWAP2 SSTORE POP POP PUSH1 0xF DUP1 SLOAD DUP3 SWAP2 SWAP1 PUSH1 0x0 SWAP1 PUSH2 0x1445 SWAP1 DUP5 SWAP1 PUSH2 0x29E7 JUMP JUMPDEST SWAP1 SWAP2 SSTORE POP POP PUSH1 0x9 SLOAD PUSH2 0x1462 SWAP1 PUSH1 0x1 PUSH1 0x1 PUSH1 0xA0 SHL SUB AND CALLER ADDRESS DUP5 PUSH2 0x1E08 JUMP JUMPDEST PUSH1 0x40 MLOAD DUP2 DUP2 MSTORE CALLER SWAP1 PUSH32 0x89D28CF06BDB2EE1B92CD046D58450042AD113E9F4CDABFC4D43E7C5557758D7 SWAP1 PUSH1 0x20 ADD PUSH1 0x40 MLOAD DUP1 SWAP2 SUB SWAP1 LOG2 POP JUMP JUMPDEST PUSH1 0x1A SLOAD PUSH2 0x100 SWAP1 DIV PUSH1 0xFF AND DUP1 PUSH2 0x14AF JUMPI POP ADDRESS EXTCODESIZE ISZERO JUMPDEST DUP1 PUSH2 0x14BD JUMPI POP PUSH1 0x1A SLOAD PUSH1 0xFF AND ISZERO JUMPDEST PUSH2 0x1520 JUMPI PUSH1 0x40 MLOAD PUSH3 0x461BCD PUSH1 0xE5 SHL DUP2 MSTORE PUSH1 0x20 PUSH1 0x4 DUP3 ADD MSTORE PUSH1 0x2E PUSH1 0x24 DUP3 ADD MSTORE PUSH32 0x436F6E747261637420696E7374616E63652068617320616C7265616479206265 PUSH1 0x44 DUP3 ADD MSTORE PUSH14 0x195B881A5B9A5D1A585B1A5E9959 PUSH1 0x92 SHL PUSH1 0x64 DUP3 ADD MSTORE PUSH1 0x84 ADD PUSH2 0x732 JUMP JUMPDEST PUSH1 0x1A SLOAD PUSH2 0x100 SWAP1 DIV PUSH1 0xFF AND ISZERO DUP1 ISZERO PUSH2 0x1542 JUMPI PUSH1 0x1A DUP1 SLOAD PUSH2 0xFFFF NOT AND PUSH2 0x101 OR SWAP1 SSTORE JUMPDEST PUSH2 0x154D PUSH1 0x0 DUP12 PUSH2 0x1F7F JUMP JUMPDEST PUSH1 0x11 DUP9 SWAP1 SSTORE PUSH1 0x12 DUP8 SWAP1 SSTORE PUSH1 0x13 DUP7 SWAP1 SSTORE PUSH1 0x15 DUP1 SLOAD PUSH1 0x1 PUSH1 0x1 PUSH1 0xA0 SHL SUB DUP1 DUP6 AND PUSH1 0x1 PUSH1 0x1 PUSH1 0xA0 SHL SUB NOT SWAP3 DUP4 AND OR SWAP1 SWAP3 SSTORE PUSH1 0x14 DUP8 SWAP1 SSTORE PUSH1 0x16 DUP7 SWAP1 SSTORE PUSH1 0x4D DUP1 SLOAD SWAP3 DUP7 AND SWAP3 SWAP1 SWAP2 AND SWAP2 SWAP1 SWAP2 OR SWAP1 SSTORE DUP9 MLOAD PUSH2 0x15A9 SWAP1 PUSH1 0x1 SWAP1 PUSH1 0x20 DUP13 ADD SWAP1 PUSH2 0x2675 JUMP JUMPDEST POP DUP1 ISZERO PUSH2 0x15BC JUMPI PUSH1 0x1A DUP1 SLOAD PUSH2 0xFF00 NOT AND SWAP1 SSTORE JUMPDEST POP POP POP POP POP POP POP POP POP POP JUMP JUMPDEST PUSH1 0x0 DUP2 GT PUSH2 0x15E8 JUMPI PUSH1 0x40 MLOAD PUSH3 0x461BCD PUSH1 0xE5 SHL DUP2 MSTORE PUSH1 0x4 ADD PUSH2 0x732 SWAP1 PUSH2 0x29A6 JUMP JUMPDEST PUSH2 0x15F0 PUSH2 0x1877 JUMP JUMPDEST CALLER PUSH1 0x0 SWAP1 DUP2 MSTORE PUSH1 0x2 PUSH1 0x20 MSTORE PUSH1 0x40 SWAP1 KECCAK256 PUSH1 0x1 ADD DUP2 SWAP1 SSTORE DUP2 GT ISZERO PUSH2 0x1654 JUMPI PUSH1 0x40 MLOAD PUSH3 0x461BCD PUSH1 0xE5 SHL DUP2 MSTORE PUSH1 0x20 PUSH1 0x4 DUP3 ADD MSTORE PUSH1 0x1B PUSH1 0x24 DUP3 ADD MSTORE PUSH32 0x43414E4E4F54205245504159204D4F5245205448414E204F5745440000000000 PUSH1 0x44 DUP3 ADD MSTORE PUSH1 0x64 ADD PUSH2 0x732 JUMP JUMPDEST CALLER PUSH1 0x0 SWAP1 DUP2 MSTORE PUSH1 0x2 PUSH1 0x20 MSTORE PUSH1 0x40 DUP2 KECCAK256 PUSH1 0x1 ADD DUP1 SLOAD DUP4 SWAP3 SWAP1 PUSH2 0x1676 SWAP1 DUP5 SWAP1 PUSH2 0x2A7B JUMP JUMPDEST SWAP1 SWAP2 SSTORE POP POP PUSH1 0x10 DUP1 SLOAD DUP3 SWAP2 SWAP1 PUSH1 0x0 SWAP1 PUSH2 0x1690 SWAP1 DUP5 SWAP1 PUSH2 0x29E7 JUMP JUMPDEST SWAP1 SWAP2 SSTORE POP POP PUSH1 0x16 SLOAD CALLER PUSH1 0x0 SWAP1 DUP2 MSTORE PUSH1 0x2 PUSH1 0x20 DUP2 SWAP1 MSTORE PUSH1 0x40 DUP3 KECCAK256 ADD SLOAD SWAP1 SWAP2 PUSH2 0x16B6 SWAP2 PUSH2 0x2A59 JUMP JUMPDEST PUSH1 0x16 SLOAD PUSH2 0x16C3 SWAP1 TIMESTAMP PUSH2 0x2A59 JUMP JUMPDEST PUSH2 0x16CD SWAP2 SWAP1 PUSH2 0x2A7B JUMP JUMPDEST PUSH1 0x16 SLOAD SWAP1 SWAP2 POP PUSH2 0x16DD SWAP1 DUP3 PUSH2 0x2A3A JUMP JUMPDEST CALLER PUSH1 0x0 SWAP1 DUP2 MSTORE PUSH1 0x2 PUSH1 0x20 DUP2 SWAP1 MSTORE PUSH1 0x40 DUP3 KECCAK256 ADD DUP1 SLOAD SWAP1 SWAP2 SWAP1 PUSH2 0x16FF SWAP1 DUP5 SWAP1 PUSH2 0x29E7 JUMP JUMPDEST SWAP1 SWAP2 SSTORE POP POP PUSH1 0x3 SLOAD PUSH2 0x171C SWAP1 PUSH1 0x1 PUSH1 0x1 PUSH1 0xA0 SHL SUB AND CALLER ADDRESS DUP6 PUSH2 0x1E08 JUMP JUMPDEST PUSH1 0x40 MLOAD DUP3 DUP2 MSTORE CALLER SWAP1 PUSH32 0x34D657CD4DEC79D6716CE5AC15B81DE5751705030CBEF01B43B15EAE44CBC112 SWAP1 PUSH1 0x20 ADD PUSH2 0x13E0 JUMP JUMPDEST PUSH2 0x1766 PUSH1 0x0 DUP1 MLOAD PUSH1 0x20 PUSH2 0x2BA2 DUP4 CODECOPY DUP2 MLOAD SWAP2 MSTORE CALLER PUSH2 0x184C JUMP JUMPDEST DUP1 PUSH2 0x1777 JUMPI POP PUSH2 0x1777 PUSH1 0x0 CALLER PUSH2 0x184C JUMP JUMPDEST PUSH2 0x17C3 JUMPI PUSH1 0x40 MLOAD PUSH3 0x461BCD PUSH1 0xE5 SHL DUP2 MSTORE PUSH1 0x20 PUSH1 0x4 DUP3 ADD MSTORE PUSH1 0x1A PUSH1 0x24 DUP3 ADD MSTORE PUSH32 0x6E6F742070726963652075706461746572206F722061646D696E000000000000 PUSH1 0x44 DUP3 ADD MSTORE PUSH1 0x64 ADD PUSH2 0x732 JUMP JUMPDEST PUSH1 0xC SLOAD PUSH2 0x17CF SWAP1 PUSH2 0xCC5 JUMP JUMPDEST PUSH1 0xE SSTORE PUSH1 0xA DUP2 SWAP1 SSTORE PUSH1 0x9 SLOAD PUSH1 0x40 MLOAD SWAP2 DUP3 MSTORE PUSH1 0x1 PUSH1 0x1 PUSH1 0xA0 SHL SUB AND SWAP2 POP PUSH32 0x64E6E7BD72B853C4E62FD6CEACA05A104700C70A4CB567C75C7F2242BA7F037C SWAP1 PUSH1 0x20 ADD PUSH2 0x1093 JUMP JUMPDEST PUSH2 0xEC7 PUSH1 0x0 DUP1 MLOAD PUSH1 0x20 PUSH2 0x2BA2 DUP4 CODECOPY DUP2 MLOAD SWAP2 MSTORE DUP3 PUSH2 0x19CD JUMP JUMPDEST PUSH1 0x0 DUP3 DUP2 MSTORE PUSH1 0x19 PUSH1 0x20 MSTORE PUSH1 0x40 DUP2 KECCAK256 PUSH2 0x1845 SWAP1 DUP4 PUSH2 0x1F89 JUMP JUMPDEST SWAP4 SWAP3 POP POP POP JUMP JUMPDEST PUSH1 0x0 SWAP2 DUP3 MSTORE PUSH1 0x18 PUSH1 0x20 SWAP1 DUP2 MSTORE PUSH1 0x40 DUP1 DUP5 KECCAK256 PUSH1 0x1 PUSH1 0x1 PUSH1 0xA0 SHL SUB SWAP4 SWAP1 SWAP4 AND DUP5 MSTORE SWAP2 SWAP1 MSTORE SWAP1 KECCAK256 SLOAD PUSH1 0xFF AND SWAP1 JUMP JUMPDEST CALLER PUSH1 0x0 SWAP1 DUP2 MSTORE PUSH1 0x2 PUSH1 0x20 MSTORE PUSH1 0x40 DUP2 KECCAK256 PUSH1 0x1 ADD SLOAD PUSH1 0x16 SLOAD SWAP1 SWAP2 SWAP1 PUSH2 0x189E SWAP1 PUSH4 0x1E13380 PUSH2 0x2A59 JUMP JUMPDEST PUSH1 0x16 SLOAD CALLER PUSH1 0x0 SWAP1 DUP2 MSTORE PUSH1 0x2 PUSH1 0x20 DUP2 SWAP1 MSTORE PUSH1 0x40 DUP3 KECCAK256 ADD SLOAD SWAP3 SWAP4 POP SWAP2 PUSH2 0x18C2 SWAP2 SWAP1 PUSH2 0x2A59 JUMP JUMPDEST PUSH1 0x16 SLOAD PUSH2 0x18CF SWAP1 TIMESTAMP PUSH2 0x2A59 JUMP JUMPDEST PUSH2 0x18D9 SWAP2 SWAP1 PUSH2 0x2A7B JUMP JUMPDEST SWAP1 POP DUP1 DUP3 PUSH2 0x2710 PUSH1 0xF PUSH1 0x2 ADD SLOAD DUP7 PUSH2 0x18F1 SWAP2 SWAP1 PUSH2 0x2A3A JUMP JUMPDEST PUSH2 0x18FB SWAP2 SWAP1 PUSH2 0x2A59 JUMP JUMPDEST PUSH2 0x1905 SWAP2 SWAP1 PUSH2 0x2A59 JUMP JUMPDEST PUSH2 0x190F SWAP2 SWAP1 PUSH2 0x2A3A JUMP JUMPDEST PUSH2 0x1919 SWAP1 DUP5 PUSH2 0x29E7 JUMP JUMPDEST SWAP3 POP POP POP SWAP1 JUMP JUMPDEST PUSH1 0x0 PUSH2 0x192B DUP2 PUSH2 0x1DFE JUMP JUMPDEST PUSH1 0x3 SLOAD PUSH1 0x1 PUSH1 0x1 PUSH1 0xA0 SHL SUB AND ISZERO DUP1 ISZERO PUSH2 0x194C JUMPI POP PUSH1 0x1 PUSH1 0x1 PUSH1 0xA0 SHL SUB DUP6 AND ISZERO ISZERO JUMPDEST PUSH2 0x1983 JUMPI PUSH1 0x40 MLOAD PUSH3 0x461BCD PUSH1 0xE5 SHL DUP2 MSTORE PUSH1 0x20 PUSH1 0x4 DUP3 ADD MSTORE PUSH1 0x8 PUSH1 0x24 DUP3 ADD MSTORE PUSH8 0x2173657461626C65 PUSH1 0xC0 SHL PUSH1 0x44 DUP3 ADD MSTORE PUSH1 0x64 ADD PUSH2 0x732 JUMP JUMPDEST POP PUSH1 0x3 DUP1 SLOAD PUSH1 0x1 PUSH1 0x1 PUSH1 0xA0 SHL SUB NOT AND PUSH1 0x1 PUSH1 0x1 PUSH1 0xA0 SHL SUB SWAP6 SWAP1 SWAP6 AND SWAP5 SWAP1 SWAP5 OR SWAP1 SWAP4 SSTORE PUSH1 0x4 SWAP3 SWAP1 SWAP3 SSTORE PUSH1 0x5 SWAP2 SWAP1 SWAP2 SSTORE PUSH1 0x6 SSTORE JUMP JUMPDEST PUSH1 0x0 DUP2 DUP2 MSTORE PUSH1 0x19 PUSH1 0x20 MSTORE PUSH1 0x40 DUP2 KECCAK256 PUSH2 0x7C9 SWAP1 PUSH2 0x1F95 JUMP JUMPDEST PUSH1 0x0 DUP3 DUP2 MSTORE PUSH1 0x18 PUSH1 0x20 MSTORE PUSH1 0x40 SWAP1 KECCAK256 PUSH1 0x1 ADD SLOAD PUSH2 0x19E8 DUP2 PUSH2 0x1DFE JUMP JUMPDEST PUSH2 0x932 DUP4 DUP4 PUSH2 0x1F5D JUMP JUMPDEST PUSH1 0x1 PUSH1 0x1 PUSH1 0xA0 SHL SUB DUP2 AND PUSH2 0x1A40 JUMPI PUSH1 0x40 MLOAD PUSH3 0x461BCD PUSH1 0xE5 SHL DUP2 MSTORE PUSH1 0x20 PUSH1 0x4 DUP3 ADD MSTORE PUSH1 0x15 PUSH1 0x24 DUP3 ADD MSTORE PUSH21 0x1BDC195C985D1A5BDB881B9BDD08185B1B1BDDD959 PUSH1 0x5A SHL PUSH1 0x44 DUP3 ADD MSTORE PUSH1 0x64 ADD PUSH2 0x732 JUMP JUMPDEST PUSH2 0xEC7 PUSH1 0x0 DUP1 MLOAD PUSH1 0x20 PUSH2 0x2BA2 DUP4 CODECOPY DUP2 MLOAD SWAP2 MSTORE DUP3 PUSH2 0x90D JUMP JUMPDEST PUSH1 0x0 PUSH2 0x1A63 DUP2 PUSH2 0x1DFE JUMP JUMPDEST PUSH1 0x3 SLOAD PUSH1 0x40 MLOAD PUSH4 0x70A08231 PUSH1 0xE0 SHL DUP2 MSTORE ADDRESS PUSH1 0x4 DUP3 ADD MSTORE DUP4 SWAP2 PUSH1 0x1 PUSH1 0x1 PUSH1 0xA0 SHL SUB AND SWAP1 PUSH4 0x70A08231 SWAP1 PUSH1 0x24 ADD PUSH1 0x20 PUSH1 0x40 MLOAD DUP1 DUP4 SUB DUP2 DUP7 GAS STATICCALL ISZERO DUP1 ISZERO PUSH2 0x1AAB JUMPI RETURNDATASIZE PUSH1 0x0 DUP1 RETURNDATACOPY RETURNDATASIZE PUSH1 0x0 REVERT JUMPDEST POP POP POP POP PUSH1 0x40 MLOAD RETURNDATASIZE PUSH1 0x1F NOT PUSH1 0x1F DUP3 ADD AND DUP3 ADD DUP1 PUSH1 0x40 MSTORE POP DUP2 ADD SWAP1 PUSH2 0x1ACF SWAP2 SWAP1 PUSH2 0x2A92 JUMP JUMPDEST LT ISZERO PUSH2 0x1B27 JUMPI PUSH1 0x40 MLOAD PUSH3 0x461BCD PUSH1 0xE5 SHL DUP2 MSTORE PUSH1 0x20 PUSH1 0x4 DUP3 ADD MSTORE PUSH1 0x21 PUSH1 0x24 DUP3 ADD MSTORE PUSH32 0x4E4F5420454E4F554748204445425420544F4B454E5320494E20524553455256 PUSH1 0x44 DUP3 ADD MSTORE PUSH1 0x45 PUSH1 0xF8 SHL PUSH1 0x64 DUP3 ADD MSTORE PUSH1 0x84 ADD PUSH2 0x732 JUMP JUMPDEST PUSH1 0x0 PUSH2 0x1B34 PUSH1 0xC8 DUP5 PUSH2 0x2A59 JUMP JUMPDEST SWAP1 POP DUP3 PUSH1 0xF PUSH1 0x1 ADD PUSH1 0x0 DUP3 DUP3 SLOAD PUSH2 0x1B4B SWAP2 SWAP1 PUSH2 0x2A7B JUMP JUMPDEST SWAP1 SWAP2 SSTORE POP PUSH2 0x1B72 SWAP1 POP CALLER PUSH2 0x1B5F DUP4 DUP7 PUSH2 0x2A7B JUMP JUMPDEST PUSH1 0x3 SLOAD PUSH1 0x1 PUSH1 0x1 PUSH1 0xA0 SHL SUB AND SWAP2 SWAP1 PUSH2 0x1F2D JUMP JUMPDEST PUSH1 0x4D SLOAD PUSH1 0x3 SLOAD PUSH2 0x1B8F SWAP2 PUSH1 0x1 PUSH1 0x1 PUSH1 0xA0 SHL SUB SWAP2 DUP3 AND SWAP2 AND DUP4 PUSH2 0x1F2D JUMP JUMPDEST PUSH1 0x3 SLOAD PUSH1 0x40 MLOAD DUP5 DUP2 MSTORE PUSH1 0x1 PUSH1 0x1 PUSH1 0xA0 SHL SUB SWAP1 SWAP2 AND SWAP1 PUSH32 0x529AFC4538720FE0B3EADC40486369AB962002D72FEAD1387B300C66073E7BF SWAP1 PUSH1 0x20 ADD PUSH1 0x40 MLOAD DUP1 SWAP2 SUB SWAP1 LOG2 POP POP POP JUMP JUMPDEST PUSH1 0x0 SLOAD PUSH1 0x1 PUSH1 0x1 PUSH1 0xA0 SHL SUB AND CALLER EQ PUSH2 0x1C1F JUMPI PUSH1 0x40 MLOAD PUSH3 0x461BCD PUSH1 0xE5 SHL DUP2 MSTORE PUSH1 0x20 PUSH1 0x4 DUP3 ADD MSTORE PUSH1 0xC PUSH1 0x24 DUP3 ADD MSTORE PUSH12 0x24A9902727AA1027ABA722A9 PUSH1 0xA1 SHL PUSH1 0x44 DUP3 ADD MSTORE PUSH1 0x64 ADD PUSH2 0x732 JUMP JUMPDEST PUSH1 0x0 DUP1 SLOAD PUSH1 0x1 PUSH1 0x1 PUSH1 0xA0 SHL SUB NOT AND PUSH1 0x1 PUSH1 0x1 PUSH1 0xA0 SHL SUB SWAP3 SWAP1 SWAP3 AND SWAP2 SWAP1 SWAP2 OR SWAP1 SSTORE JUMP JUMPDEST CALLER PUSH1 0x0 SWAP1 DUP2 MSTORE PUSH1 0x2 PUSH1 0x20 MSTORE PUSH1 0x40 SWAP1 KECCAK256 SLOAD DUP2 GT ISZERO PUSH2 0x1CA0 JUMPI PUSH1 0x40 MLOAD PUSH3 0x461BCD PUSH1 0xE5 SHL DUP2 MSTORE PUSH1 0x20 PUSH1 0x4 DUP3 ADD MSTORE PUSH1 0x1F PUSH1 0x24 DUP3 ADD MSTORE PUSH32 0x43414E4E4F54205749544844524157204D4F524520434F4C4C41544552414C00 PUSH1 0x44 DUP3 ADD MSTORE PUSH1 0x64 ADD PUSH2 0x732 JUMP JUMPDEST PUSH1 0x13 SLOAD PUSH1 0x4 SLOAD PUSH1 0xA SLOAD CALLER PUSH1 0x0 SWAP1 DUP2 MSTORE PUSH1 0x2 PUSH1 0x20 MSTORE PUSH1 0x40 DUP2 KECCAK256 SLOAD SWAP1 SWAP4 SWAP3 SWAP2 SWAP1 PUSH2 0x1CC9 SWAP1 DUP7 SWAP1 PUSH2 0x2A7B JUMP JUMPDEST PUSH2 0x1CD3 SWAP2 SWAP1 PUSH2 0x2A3A JUMP JUMPDEST PUSH2 0x1CDD SWAP2 SWAP1 PUSH2 0x2A59 JUMP JUMPDEST PUSH2 0x1CE7 SWAP2 SWAP1 PUSH2 0x2A59 JUMP JUMPDEST PUSH2 0x1CF2 SWAP1 PUSH1 0x64 PUSH2 0x2A3A JUMP JUMPDEST PUSH1 0x5 SLOAD SWAP1 SWAP2 POP PUSH2 0x1D02 SWAP1 DUP3 PUSH2 0x2A3A JUMP JUMPDEST PUSH1 0xB SLOAD SWAP1 SWAP2 POP PUSH2 0x1D12 SWAP1 DUP3 PUSH2 0x2A59 JUMP JUMPDEST CALLER PUSH1 0x0 SWAP1 DUP2 MSTORE PUSH1 0x2 PUSH1 0x20 MSTORE PUSH1 0x40 SWAP1 KECCAK256 PUSH1 0x1 ADD SLOAD SWAP1 SWAP2 POP DUP2 LT ISZERO PUSH2 0x1D77 JUMPI PUSH1 0x40 MLOAD PUSH3 0x461BCD PUSH1 0xE5 SHL DUP2 MSTORE PUSH1 0x20 PUSH1 0x4 DUP3 ADD MSTORE PUSH1 0x1F PUSH1 0x24 DUP3 ADD MSTORE PUSH32 0x43414E4E4F5420554E444552434F4C4C41544552414C495A45205641554C5400 PUSH1 0x44 DUP3 ADD MSTORE PUSH1 0x64 ADD PUSH2 0x732 JUMP JUMPDEST CALLER PUSH1 0x0 SWAP1 DUP2 MSTORE PUSH1 0x2 PUSH1 0x20 MSTORE PUSH1 0x40 DUP2 KECCAK256 DUP1 SLOAD DUP5 SWAP3 SWAP1 PUSH2 0x1D96 SWAP1 DUP5 SWAP1 PUSH2 0x2A7B JUMP JUMPDEST SWAP1 SWAP2 SSTORE POP POP PUSH1 0xF DUP1 SLOAD DUP4 SWAP2 SWAP1 PUSH1 0x0 SWAP1 PUSH2 0x1DB0 SWAP1 DUP5 SWAP1 PUSH2 0x2A7B JUMP JUMPDEST SWAP1 SWAP2 SSTORE POP POP PUSH1 0x9 SLOAD PUSH2 0x1DCC SWAP1 PUSH1 0x1 PUSH1 0x1 PUSH1 0xA0 SHL SUB AND CALLER DUP5 PUSH2 0x1F2D JUMP JUMPDEST PUSH1 0x40 MLOAD DUP3 DUP2 MSTORE CALLER SWAP1 PUSH32 0xAC60FBF53B67F5A6A0C8031DD9D1610A06F01669B1A8B9AF98F3A6A477E8D7C SWAP1 PUSH1 0x20 ADD PUSH2 0x13E0 JUMP JUMPDEST PUSH2 0xEC7 DUP2 CALLER PUSH2 0x1F9F JUMP JUMPDEST PUSH1 0x40 MLOAD PUSH1 0x1 PUSH1 0x1 PUSH1 0xA0 SHL SUB DUP1 DUP6 AND PUSH1 0x24 DUP4 ADD MSTORE DUP4 AND PUSH1 0x44 DUP3 ADD MSTORE PUSH1 0x64 DUP2 ADD DUP3 SWAP1 MSTORE PUSH2 0x1E73 SWAP1 DUP6 SWAP1 PUSH4 0x23B872DD PUSH1 0xE0 SHL SWAP1 PUSH1 0x84 ADD JUMPDEST PUSH1 0x40 DUP1 MLOAD PUSH1 0x1F NOT DUP2 DUP5 SUB ADD DUP2 MSTORE SWAP2 SWAP1 MSTORE PUSH1 0x20 DUP2 ADD DUP1 MLOAD PUSH1 0x1 PUSH1 0x1 PUSH1 0xE0 SHL SUB AND PUSH1 0x1 PUSH1 0x1 PUSH1 0xE0 SHL SUB NOT SWAP1 SWAP4 AND SWAP3 SWAP1 SWAP3 OR SWAP1 SWAP2 MSTORE PUSH2 0x2003 JUMP JUMPDEST POP POP POP POP JUMP JUMPDEST PUSH1 0x0 PUSH1 0x1 PUSH1 0x1 PUSH1 0xE0 SHL SUB NOT DUP3 AND PUSH4 0x7965DB0B PUSH1 0xE0 SHL EQ DUP1 PUSH2 0x7C9 JUMPI POP PUSH1 0x17 SLOAD PUSH1 0x40 MLOAD PUSH4 0x1FFC9A7 PUSH1 0xE0 SHL DUP2 MSTORE PUSH1 0x1 PUSH1 0x1 PUSH1 0xE0 SHL SUB NOT DUP5 AND PUSH1 0x4 DUP3 ADD MSTORE PUSH1 0x1 PUSH1 0x1 PUSH1 0xA0 SHL SUB SWAP1 SWAP2 AND SWAP1 PUSH4 0x1FFC9A7 SWAP1 PUSH1 0x24 ADD PUSH1 0x20 PUSH1 0x40 MLOAD DUP1 DUP4 SUB DUP2 DUP7 GAS STATICCALL ISZERO DUP1 ISZERO PUSH2 0x1EE7 JUMPI RETURNDATASIZE PUSH1 0x0 DUP1 RETURNDATACOPY RETURNDATASIZE PUSH1 0x0 REVERT JUMPDEST POP POP POP POP PUSH1 0x40 MLOAD RETURNDATASIZE PUSH1 0x1F NOT PUSH1 0x1F DUP3 ADD AND DUP3 ADD DUP1 PUSH1 0x40 MSTORE POP DUP2 ADD SWAP1 PUSH2 0x7C9 SWAP2 SWAP1 PUSH2 0x2AAB JUMP JUMPDEST PUSH2 0x1F15 DUP3 DUP3 PUSH2 0x20D5 JUMP JUMPDEST PUSH1 0x0 DUP3 DUP2 MSTORE PUSH1 0x19 PUSH1 0x20 MSTORE PUSH1 0x40 SWAP1 KECCAK256 PUSH2 0x932 SWAP1 DUP3 PUSH2 0x215B JUMP JUMPDEST PUSH1 0x40 MLOAD PUSH1 0x1 PUSH1 0x1 PUSH1 0xA0 SHL SUB DUP4 AND PUSH1 0x24 DUP3 ADD MSTORE PUSH1 0x44 DUP2 ADD DUP3 SWAP1 MSTORE PUSH2 0x932 SWAP1 DUP5 SWAP1 PUSH4 0xA9059CBB PUSH1 0xE0 SHL SWAP1 PUSH1 0x64 ADD PUSH2 0x1E3C JUMP JUMPDEST PUSH2 0x1F67 DUP3 DUP3 PUSH2 0x2170 JUMP JUMPDEST PUSH1 0x0 DUP3 DUP2 MSTORE PUSH1 0x19 PUSH1 0x20 MSTORE PUSH1 0x40 SWAP1 KECCAK256 PUSH2 0x932 SWAP1 DUP3 PUSH2 0x21D7 JUMP JUMPDEST PUSH2 0xC2B DUP3 DUP3 PUSH2 0x1F0B JUMP JUMPDEST PUSH1 0x0 PUSH2 0x1845 DUP4 DUP4 PUSH2 0x21EC JUMP JUMPDEST PUSH1 0x0 PUSH2 0x7C9 DUP3 SLOAD SWAP1 JUMP JUMPDEST PUSH2 0x1FA9 DUP3 DUP3 PUSH2 0x184C JUMP JUMPDEST PUSH2 0xC2B JUMPI PUSH2 0x1FC1 DUP2 PUSH1 0x1 PUSH1 0x1 PUSH1 0xA0 SHL SUB AND PUSH1 0x14 PUSH2 0x2216 JUMP JUMPDEST PUSH2 0x1FCC DUP4 PUSH1 0x20 PUSH2 0x2216 JUMP JUMPDEST PUSH1 0x40 MLOAD PUSH1 0x20 ADD PUSH2 0x1FDD SWAP3 SWAP2 SWAP1 PUSH2 0x2ACD JUMP JUMPDEST PUSH1 0x40 DUP1 MLOAD PUSH1 0x1F NOT DUP2 DUP5 SUB ADD DUP2 MSTORE SWAP1 DUP3 SWAP1 MSTORE PUSH3 0x461BCD PUSH1 0xE5 SHL DUP3 MSTORE PUSH2 0x732 SWAP2 PUSH1 0x4 ADD PUSH2 0x277D JUMP JUMPDEST PUSH1 0x0 PUSH2 0x2058 DUP3 PUSH1 0x40 MLOAD DUP1 PUSH1 0x40 ADD PUSH1 0x40 MSTORE DUP1 PUSH1 0x20 DUP2 MSTORE PUSH1 0x20 ADD PUSH32 0x5361666545524332303A206C6F772D6C6576656C2063616C6C206661696C6564 DUP2 MSTORE POP DUP6 PUSH1 0x1 PUSH1 0x1 PUSH1 0xA0 SHL SUB AND PUSH2 0x23B2 SWAP1 SWAP3 SWAP2 SWAP1 PUSH4 0xFFFFFFFF AND JUMP JUMPDEST DUP1 MLOAD SWAP1 SWAP2 POP ISZERO PUSH2 0x932 JUMPI DUP1 DUP1 PUSH1 0x20 ADD SWAP1 MLOAD DUP2 ADD SWAP1 PUSH2 0x2076 SWAP2 SWAP1 PUSH2 0x2AAB JUMP JUMPDEST PUSH2 0x932 JUMPI PUSH1 0x40 MLOAD PUSH3 0x461BCD PUSH1 0xE5 SHL DUP2 MSTORE PUSH1 0x20 PUSH1 0x4 DUP3 ADD MSTORE PUSH1 0x2A PUSH1 0x24 DUP3 ADD MSTORE PUSH32 0x5361666545524332303A204552433230206F7065726174696F6E20646964206E PUSH1 0x44 DUP3 ADD MSTORE PUSH10 0x1BDD081CDD58D8D95959 PUSH1 0xB2 SHL PUSH1 0x64 DUP3 ADD MSTORE PUSH1 0x84 ADD PUSH2 0x732 JUMP JUMPDEST PUSH2 0x20DF DUP3 DUP3 PUSH2 0x184C JUMP JUMPDEST PUSH2 0xC2B JUMPI PUSH1 0x0 DUP3 DUP2 MSTORE PUSH1 0x18 PUSH1 0x20 SWAP1 DUP2 MSTORE PUSH1 0x40 DUP1 DUP4 KECCAK256 PUSH1 0x1 PUSH1 0x1 PUSH1 0xA0 SHL SUB DUP6 AND DUP5 MSTORE SWAP1 SWAP2 MSTORE SWAP1 KECCAK256 DUP1 SLOAD PUSH1 0xFF NOT AND PUSH1 0x1 OR SWAP1 SSTORE PUSH2 0x2117 CALLER SWAP1 JUMP JUMPDEST PUSH1 0x1 PUSH1 0x1 PUSH1 0xA0 SHL SUB AND DUP2 PUSH1 0x1 PUSH1 0x1 PUSH1 0xA0 SHL SUB AND DUP4 PUSH32 0x2F8788117E7EFF1D82E926EC794901D17C78024A50270940304540A733656F0D PUSH1 0x40 MLOAD PUSH1 0x40 MLOAD DUP1 SWAP2 SUB SWAP1 LOG4 POP POP JUMP JUMPDEST PUSH1 0x0 PUSH2 0x1845 DUP4 PUSH1 0x1 PUSH1 0x1 PUSH1 0xA0 SHL SUB DUP5 AND PUSH2 0x23C9 JUMP JUMPDEST PUSH2 0x217A DUP3 DUP3 PUSH2 0x184C JUMP JUMPDEST ISZERO PUSH2 0xC2B JUMPI PUSH1 0x0 DUP3 DUP2 MSTORE PUSH1 0x18 PUSH1 0x20 SWAP1 DUP2 MSTORE PUSH1 0x40 DUP1 DUP4 KECCAK256 PUSH1 0x1 PUSH1 0x1 PUSH1 0xA0 SHL SUB DUP6 AND DUP1 DUP6 MSTORE SWAP3 MSTORE DUP1 DUP4 KECCAK256 DUP1 SLOAD PUSH1 0xFF NOT AND SWAP1 SSTORE MLOAD CALLER SWAP3 DUP6 SWAP2 PUSH32 0xF6391F5C32D9C69D2A47EA670B442974B53935D1EDC7FD64EB21E047A839171B SWAP2 SWAP1 LOG4 POP POP JUMP JUMPDEST PUSH1 0x0 PUSH2 0x1845 DUP4 PUSH1 0x1 PUSH1 0x1 PUSH1 0xA0 SHL SUB DUP5 AND PUSH2 0x2418 JUMP JUMPDEST PUSH1 0x0 DUP3 PUSH1 0x0 ADD DUP3 DUP2 SLOAD DUP2 LT PUSH2 0x2203 JUMPI PUSH2 0x2203 PUSH2 0x2B42 JUMP JUMPDEST SWAP1 PUSH1 0x0 MSTORE PUSH1 0x20 PUSH1 0x0 KECCAK256 ADD SLOAD SWAP1 POP SWAP3 SWAP2 POP POP JUMP JUMPDEST PUSH1 0x60 PUSH1 0x0 PUSH2 0x2225 DUP4 PUSH1 0x2 PUSH2 0x2A3A JUMP JUMPDEST PUSH2 0x2230 SWAP1 PUSH1 0x2 PUSH2 0x29E7 JUMP JUMPDEST PUSH8 0xFFFFFFFFFFFFFFFF DUP2 GT ISZERO PUSH2 0x2248 JUMPI PUSH2 0x2248 PUSH2 0x2858 JUMP JUMPDEST PUSH1 0x40 MLOAD SWAP1 DUP1 DUP3 MSTORE DUP1 PUSH1 0x1F ADD PUSH1 0x1F NOT AND PUSH1 0x20 ADD DUP3 ADD PUSH1 0x40 MSTORE DUP1 ISZERO PUSH2 0x2272 JUMPI PUSH1 0x20 DUP3 ADD DUP2 DUP1 CALLDATASIZE DUP4 CALLDATACOPY ADD SWAP1 POP JUMPDEST POP SWAP1 POP PUSH1 0x3 PUSH1 0xFC SHL DUP2 PUSH1 0x0 DUP2 MLOAD DUP2 LT PUSH2 0x228D JUMPI PUSH2 0x228D PUSH2 0x2B42 JUMP JUMPDEST PUSH1 0x20 ADD ADD SWAP1 PUSH1 0x1 PUSH1 0x1 PUSH1 0xF8 SHL SUB NOT AND SWAP1 DUP2 PUSH1 0x0 BYTE SWAP1 MSTORE8 POP PUSH1 0xF PUSH1 0xFB SHL DUP2 PUSH1 0x1 DUP2 MLOAD DUP2 LT PUSH2 0x22BC JUMPI PUSH2 0x22BC PUSH2 0x2B42 JUMP JUMPDEST PUSH1 0x20 ADD ADD SWAP1 PUSH1 0x1 PUSH1 0x1 PUSH1 0xF8 SHL SUB NOT AND SWAP1 DUP2 PUSH1 0x0 BYTE SWAP1 MSTORE8 POP PUSH1 0x0 PUSH2 0x22E0 DUP5 PUSH1 0x2 PUSH2 0x2A3A JUMP JUMPDEST PUSH2 0x22EB SWAP1 PUSH1 0x1 PUSH2 0x29E7 JUMP JUMPDEST SWAP1 POP JUMPDEST PUSH1 0x1 DUP2 GT ISZERO PUSH2 0x2363 JUMPI PUSH16 0x181899199A1A9B1B9C1CB0B131B232B3 PUSH1 0x81 SHL DUP6 PUSH1 0xF AND PUSH1 0x10 DUP2 LT PUSH2 0x231F JUMPI PUSH2 0x231F PUSH2 0x2B42 JUMP JUMPDEST BYTE PUSH1 0xF8 SHL DUP3 DUP3 DUP2 MLOAD DUP2 LT PUSH2 0x2335 JUMPI PUSH2 0x2335 PUSH2 0x2B42 JUMP JUMPDEST PUSH1 0x20 ADD ADD SWAP1 PUSH1 0x1 PUSH1 0x1 PUSH1 0xF8 SHL SUB NOT AND SWAP1 DUP2 PUSH1 0x0 BYTE SWAP1 MSTORE8 POP PUSH1 0x4 SWAP5 SWAP1 SWAP5 SHR SWAP4 PUSH2 0x235C DUP2 PUSH2 0x2B58 JUMP JUMPDEST SWAP1 POP PUSH2 0x22EE JUMP JUMPDEST POP DUP4 ISZERO PUSH2 0x1845 JUMPI PUSH1 0x40 MLOAD PUSH3 0x461BCD PUSH1 0xE5 SHL DUP2 MSTORE PUSH1 0x20 PUSH1 0x4 DUP3 ADD DUP2 SWAP1 MSTORE PUSH1 0x24 DUP3 ADD MSTORE PUSH32 0x537472696E67733A20686578206C656E67746820696E73756666696369656E74 PUSH1 0x44 DUP3 ADD MSTORE PUSH1 0x64 ADD PUSH2 0x732 JUMP JUMPDEST PUSH1 0x60 PUSH2 0x23C1 DUP5 DUP5 PUSH1 0x0 DUP6 PUSH2 0x250B JUMP JUMPDEST SWAP5 SWAP4 POP POP POP POP JUMP JUMPDEST PUSH1 0x0 DUP2 DUP2 MSTORE PUSH1 0x1 DUP4 ADD PUSH1 0x20 MSTORE PUSH1 0x40 DUP2 KECCAK256 SLOAD PUSH2 0x2410 JUMPI POP DUP2 SLOAD PUSH1 0x1 DUP2 DUP2 ADD DUP5 SSTORE PUSH1 0x0 DUP5 DUP2 MSTORE PUSH1 0x20 DUP1 DUP3 KECCAK256 SWAP1 SWAP4 ADD DUP5 SWAP1 SSTORE DUP5 SLOAD DUP5 DUP3 MSTORE DUP3 DUP7 ADD SWAP1 SWAP4 MSTORE PUSH1 0x40 SWAP1 KECCAK256 SWAP2 SWAP1 SWAP2 SSTORE PUSH2 0x7C9 JUMP JUMPDEST POP PUSH1 0x0 PUSH2 0x7C9 JUMP JUMPDEST PUSH1 0x0 DUP2 DUP2 MSTORE PUSH1 0x1 DUP4 ADD PUSH1 0x20 MSTORE PUSH1 0x40 DUP2 KECCAK256 SLOAD DUP1 ISZERO PUSH2 0x2501 JUMPI PUSH1 0x0 PUSH2 0x243C PUSH1 0x1 DUP4 PUSH2 0x2A7B JUMP JUMPDEST DUP6 SLOAD SWAP1 SWAP2 POP PUSH1 0x0 SWAP1 PUSH2 0x2450 SWAP1 PUSH1 0x1 SWAP1 PUSH2 0x2A7B JUMP JUMPDEST SWAP1 POP DUP2 DUP2 EQ PUSH2 0x24B5 JUMPI PUSH1 0x0 DUP7 PUSH1 0x0 ADD DUP3 DUP2 SLOAD DUP2 LT PUSH2 0x2470 JUMPI PUSH2 0x2470 PUSH2 0x2B42 JUMP JUMPDEST SWAP1 PUSH1 0x0 MSTORE PUSH1 0x20 PUSH1 0x0 KECCAK256 ADD SLOAD SWAP1 POP DUP1 DUP8 PUSH1 0x0 ADD DUP5 DUP2 SLOAD DUP2 LT PUSH2 0x2493 JUMPI PUSH2 0x2493 PUSH2 0x2B42 JUMP JUMPDEST PUSH1 0x0 SWAP2 DUP3 MSTORE PUSH1 0x20 DUP1 DUP4 KECCAK256 SWAP1 SWAP2 ADD SWAP3 SWAP1 SWAP3 SSTORE SWAP2 DUP3 MSTORE PUSH1 0x1 DUP9 ADD SWAP1 MSTORE PUSH1 0x40 SWAP1 KECCAK256 DUP4 SWAP1 SSTORE JUMPDEST DUP6 SLOAD DUP7 SWAP1 DUP1 PUSH2 0x24C6 JUMPI PUSH2 0x24C6 PUSH2 0x2B6F JUMP JUMPDEST PUSH1 0x1 SWAP1 SUB DUP2 DUP2 SWAP1 PUSH1 0x0 MSTORE PUSH1 0x20 PUSH1 0x0 KECCAK256 ADD PUSH1 0x0 SWAP1 SSTORE SWAP1 SSTORE DUP6 PUSH1 0x1 ADD PUSH1 0x0 DUP7 DUP2 MSTORE PUSH1 0x20 ADD SWAP1 DUP2 MSTORE PUSH1 0x20 ADD PUSH1 0x0 KECCAK256 PUSH1 0x0 SWAP1 SSTORE PUSH1 0x1 SWAP4 POP POP POP POP PUSH2 0x7C9 JUMP JUMPDEST PUSH1 0x0 SWAP2 POP POP PUSH2 0x7C9 JUMP JUMPDEST PUSH1 0x60 DUP3 SELFBALANCE LT ISZERO PUSH2 0x256C JUMPI PUSH1 0x40 MLOAD PUSH3 0x461BCD PUSH1 0xE5 SHL DUP2 MSTORE PUSH1 0x20 PUSH1 0x4 DUP3 ADD MSTORE PUSH1 0x26 PUSH1 0x24 DUP3 ADD MSTORE PUSH32 0x416464726573733A20696E73756666696369656E742062616C616E636520666F PUSH1 0x44 DUP3 ADD MSTORE PUSH6 0x1C8818D85B1B PUSH1 0xD2 SHL PUSH1 0x64 DUP3 ADD MSTORE PUSH1 0x84 ADD PUSH2 0x732 JUMP JUMPDEST PUSH1 0x1 PUSH1 0x1 PUSH1 0xA0 SHL SUB DUP6 AND EXTCODESIZE PUSH2 0x25C3 JUMPI PUSH1 0x40 MLOAD PUSH3 0x461BCD PUSH1 0xE5 SHL DUP2 MSTORE PUSH1 0x20 PUSH1 0x4 DUP3 ADD MSTORE PUSH1 0x1D PUSH1 0x24 DUP3 ADD MSTORE PUSH32 0x416464726573733A2063616C6C20746F206E6F6E2D636F6E7472616374000000 PUSH1 0x44 DUP3 ADD MSTORE PUSH1 0x64 ADD PUSH2 0x732 JUMP JUMPDEST PUSH1 0x0 DUP1 DUP7 PUSH1 0x1 PUSH1 0x1 PUSH1 0xA0 SHL SUB AND DUP6 DUP8 PUSH1 0x40 MLOAD PUSH2 0x25DF SWAP2 SWAP1 PUSH2 0x2B85 JUMP JUMPDEST PUSH1 0x0 PUSH1 0x40 MLOAD DUP1 DUP4 SUB DUP2 DUP6 DUP8 GAS CALL SWAP3 POP POP POP RETURNDATASIZE DUP1 PUSH1 0x0 DUP2 EQ PUSH2 0x261C JUMPI PUSH1 0x40 MLOAD SWAP2 POP PUSH1 0x1F NOT PUSH1 0x3F RETURNDATASIZE ADD AND DUP3 ADD PUSH1 0x40 MSTORE RETURNDATASIZE DUP3 MSTORE RETURNDATASIZE PUSH1 0x0 PUSH1 0x20 DUP5 ADD RETURNDATACOPY PUSH2 0x2621 JUMP JUMPDEST PUSH1 0x60 SWAP2 POP JUMPDEST POP SWAP2 POP SWAP2 POP PUSH2 0x2631 DUP3 DUP3 DUP7 PUSH2 0x263C JUMP JUMPDEST SWAP8 SWAP7 POP POP POP POP POP POP POP JUMP JUMPDEST PUSH1 0x60 DUP4 ISZERO PUSH2 0x264B JUMPI POP DUP2 PUSH2 0x1845 JUMP JUMPDEST DUP3 MLOAD ISZERO PUSH2 0x265B JUMPI DUP3 MLOAD DUP1 DUP5 PUSH1 0x20 ADD REVERT JUMPDEST DUP2 PUSH1 0x40 MLOAD PUSH3 0x461BCD PUSH1 0xE5 SHL DUP2 MSTORE PUSH1 0x4 ADD PUSH2 0x732 SWAP2 SWAP1 PUSH2 0x277D JUMP JUMPDEST DUP3 DUP1 SLOAD PUSH2 0x2681 SWAP1 PUSH2 0x29FF JUMP JUMPDEST SWAP1 PUSH1 0x0 MSTORE PUSH1 0x20 PUSH1 0x0 KECCAK256 SWAP1 PUSH1 0x1F ADD PUSH1 0x20 SWAP1 DIV DUP2 ADD SWAP3 DUP3 PUSH2 0x26A3 JUMPI PUSH1 0x0 DUP6 SSTORE PUSH2 0x26E9 JUMP JUMPDEST DUP3 PUSH1 0x1F LT PUSH2 0x26BC JUMPI DUP1 MLOAD PUSH1 0xFF NOT AND DUP4 DUP1 ADD OR DUP6 SSTORE PUSH2 0x26E9 JUMP JUMPDEST DUP3 DUP1 ADD PUSH1 0x1 ADD DUP6 SSTORE DUP3 ISZERO PUSH2 0x26E9 JUMPI SWAP2 DUP3 ADD JUMPDEST DUP3 DUP2 GT ISZERO PUSH2 0x26E9 JUMPI DUP3 MLOAD DUP3 SSTORE SWAP2 PUSH1 0x20 ADD SWAP2 SWAP1 PUSH1 0x1 ADD SWAP1 PUSH2 0x26CE JUMP JUMPDEST POP PUSH2 0x26F5 SWAP3 SWAP2 POP PUSH2 0x26F9 JUMP JUMPDEST POP SWAP1 JUMP JUMPDEST JUMPDEST DUP1 DUP3 GT ISZERO PUSH2 0x26F5 JUMPI PUSH1 0x0 DUP2 SSTORE PUSH1 0x1 ADD PUSH2 0x26FA JUMP JUMPDEST PUSH1 0x0 PUSH1 0x20 DUP3 DUP5 SUB SLT ISZERO PUSH2 0x2720 JUMPI PUSH1 0x0 DUP1 REVERT JUMPDEST POP CALLDATALOAD SWAP2 SWAP1 POP JUMP JUMPDEST PUSH1 0x0 PUSH1 0x20 DUP3 DUP5 SUB SLT ISZERO PUSH2 0x2739 JUMPI PUSH1 0x0 DUP1 REVERT JUMPDEST DUP2 CALLDATALOAD PUSH1 0x1 PUSH1 0x1 PUSH1 0xE0 SHL SUB NOT DUP2 AND DUP2 EQ PUSH2 0x1845 JUMPI PUSH1 0x0 DUP1 REVERT JUMPDEST PUSH1 0x0 JUMPDEST DUP4 DUP2 LT ISZERO PUSH2 0x276C JUMPI DUP2 DUP2 ADD MLOAD DUP4 DUP3 ADD MSTORE PUSH1 0x20 ADD PUSH2 0x2754 JUMP JUMPDEST DUP4 DUP2 GT ISZERO PUSH2 0x1E73 JUMPI POP POP PUSH1 0x0 SWAP2 ADD MSTORE JUMP JUMPDEST PUSH1 0x20 DUP2 MSTORE PUSH1 0x0 DUP3 MLOAD DUP1 PUSH1 0x20 DUP5 ADD MSTORE PUSH2 0x279C DUP2 PUSH1 0x40 DUP6 ADD PUSH1 0x20 DUP8 ADD PUSH2 0x2751 JUMP JUMPDEST PUSH1 0x1F ADD PUSH1 0x1F NOT AND SWAP2 SWAP1 SWAP2 ADD PUSH1 0x40 ADD SWAP3 SWAP2 POP POP JUMP JUMPDEST PUSH1 0x1 PUSH1 0x1 PUSH1 0xA0 SHL SUB DUP2 AND DUP2 EQ PUSH2 0xEC7 JUMPI PUSH1 0x0 DUP1 REVERT JUMPDEST DUP1 CALLDATALOAD PUSH2 0x908 DUP2 PUSH2 0x27B0 JUMP JUMPDEST PUSH1 0x0 PUSH1 0x20 DUP3 DUP5 SUB SLT ISZERO PUSH2 0x27E2 JUMPI PUSH1 0x0 DUP1 REVERT JUMPDEST DUP2 CALLDATALOAD PUSH2 0x1845 DUP2 PUSH2 0x27B0 JUMP JUMPDEST PUSH1 0x0 DUP1 PUSH1 0x40 DUP4 DUP6 SUB SLT ISZERO PUSH2 0x2800 JUMPI PUSH1 0x0 DUP1 REVERT JUMPDEST DUP3 CALLDATALOAD SWAP2 POP PUSH1 0x20 DUP4 ADD CALLDATALOAD PUSH2 0x2812 DUP2 PUSH2 0x27B0 JUMP JUMPDEST DUP1 SWAP2 POP POP SWAP3 POP SWAP3 SWAP1 POP JUMP JUMPDEST PUSH1 0x0 DUP1 PUSH1 0x0 DUP1 PUSH1 0x80 DUP6 DUP8 SUB SLT ISZERO PUSH2 0x2833 JUMPI PUSH1 0x0 DUP1 REVERT JUMPDEST DUP5 CALLDATALOAD PUSH2 0x283E DUP2 PUSH2 0x27B0 JUMP JUMPDEST SWAP7 PUSH1 0x20 DUP7 ADD CALLDATALOAD SWAP7 POP PUSH1 0x40 DUP7 ADD CALLDATALOAD SWAP6 PUSH1 0x60 ADD CALLDATALOAD SWAP5 POP SWAP3 POP POP POP JUMP JUMPDEST PUSH4 0x4E487B71 PUSH1 0xE0 SHL PUSH1 0x0 MSTORE PUSH1 0x41 PUSH1 0x4 MSTORE PUSH1 0x24 PUSH1 0x0 REVERT JUMPDEST PUSH1 0x0 DUP1 PUSH1 0x0 DUP1 PUSH1 0x0 DUP1 PUSH1 0x0 DUP1 PUSH1 0x0 PUSH2 0x120 DUP11 DUP13 SUB SLT ISZERO PUSH2 0x288D JUMPI PUSH1 0x0 DUP1 REVERT JUMPDEST DUP10 CALLDATALOAD PUSH2 0x2898 DUP2 PUSH2 0x27B0 JUMP JUMPDEST SWAP9 POP PUSH1 0x20 DUP11 ADD CALLDATALOAD PUSH8 0xFFFFFFFFFFFFFFFF DUP1 DUP3 GT ISZERO PUSH2 0x28B5 JUMPI PUSH1 0x0 DUP1 REVERT JUMPDEST DUP2 DUP13 ADD SWAP2 POP DUP13 PUSH1 0x1F DUP4 ADD SLT PUSH2 0x28C9 JUMPI PUSH1 0x0 DUP1 REVERT JUMPDEST DUP2 CALLDATALOAD DUP2 DUP2 GT ISZERO PUSH2 0x28DB JUMPI PUSH2 0x28DB PUSH2 0x2858 JUMP JUMPDEST PUSH1 0x40 MLOAD PUSH1 0x1F DUP3 ADD PUSH1 0x1F NOT SWAP1 DUP2 AND PUSH1 0x3F ADD AND DUP2 ADD SWAP1 DUP4 DUP3 GT DUP2 DUP4 LT OR ISZERO PUSH2 0x2903 JUMPI PUSH2 0x2903 PUSH2 0x2858 JUMP JUMPDEST DUP2 PUSH1 0x40 MSTORE DUP3 DUP2 MSTORE DUP16 PUSH1 0x20 DUP5 DUP8 ADD ADD GT ISZERO PUSH2 0x291C JUMPI PUSH1 0x0 DUP1 REVERT JUMPDEST DUP3 PUSH1 0x20 DUP7 ADD PUSH1 0x20 DUP4 ADD CALLDATACOPY PUSH1 0x0 PUSH1 0x20 DUP5 DUP4 ADD ADD MSTORE DUP1 SWAP13 POP POP POP POP POP POP PUSH1 0x40 DUP11 ADD CALLDATALOAD SWAP7 POP PUSH1 0x60 DUP11 ADD CALLDATALOAD SWAP6 POP PUSH1 0x80 DUP11 ADD CALLDATALOAD SWAP5 POP PUSH1 0xA0 DUP11 ADD CALLDATALOAD SWAP4 POP PUSH1 0xC0 DUP11 ADD CALLDATALOAD SWAP3 POP PUSH2 0x2966 PUSH1 0xE0 DUP12 ADD PUSH2 0x27C5 JUMP JUMPDEST SWAP2 POP PUSH2 0x2975 PUSH2 0x100 DUP12 ADD PUSH2 0x27C5 JUMP JUMPDEST SWAP1 POP SWAP3 SWAP6 SWAP9 POP SWAP3 SWAP6 SWAP9 POP SWAP3 SWAP6 SWAP9 JUMP JUMPDEST PUSH1 0x0 DUP1 PUSH1 0x40 DUP4 DUP6 SUB SLT ISZERO PUSH2 0x2997 JUMPI PUSH1 0x0 DUP1 REVERT JUMPDEST POP POP DUP1 CALLDATALOAD SWAP3 PUSH1 0x20 SWAP1 SWAP2 ADD CALLDATALOAD SWAP2 POP JUMP JUMPDEST PUSH1 0x20 DUP1 DUP3 MSTORE PUSH1 0x11 SWAP1 DUP3 ADD MSTORE PUSH17 0x416D6F756E74206973207A65726F202121 PUSH1 0x78 SHL PUSH1 0x40 DUP3 ADD MSTORE PUSH1 0x60 ADD SWAP1 JUMP JUMPDEST PUSH4 0x4E487B71 PUSH1 0xE0 SHL PUSH1 0x0 MSTORE PUSH1 0x11 PUSH1 0x4 MSTORE PUSH1 0x24 PUSH1 0x0 REVERT JUMPDEST PUSH1 0x0 DUP3 NOT DUP3 GT ISZERO PUSH2 0x29FA JUMPI PUSH2 0x29FA PUSH2 0x29D1 JUMP JUMPDEST POP ADD SWAP1 JUMP JUMPDEST PUSH1 0x1 DUP2 DUP2 SHR SWAP1 DUP3 AND DUP1 PUSH2 0x2A13 JUMPI PUSH1 0x7F DUP3 AND SWAP2 POP JUMPDEST PUSH1 0x20 DUP3 LT DUP2 EQ ISZERO PUSH2 0x2A34 JUMPI PUSH4 0x4E487B71 PUSH1 0xE0 SHL PUSH1 0x0 MSTORE PUSH1 0x22 PUSH1 0x4 MSTORE PUSH1 0x24 PUSH1 0x0 REVERT JUMPDEST POP SWAP2 SWAP1 POP JUMP JUMPDEST PUSH1 0x0 DUP2 PUSH1 0x0 NOT DIV DUP4 GT DUP3 ISZERO ISZERO AND ISZERO PUSH2 0x2A54 JUMPI PUSH2 0x2A54 PUSH2 0x29D1 JUMP JUMPDEST POP MUL SWAP1 JUMP JUMPDEST PUSH1 0x0 DUP3 PUSH2 0x2A76 JUMPI PUSH4 0x4E487B71 PUSH1 0xE0 SHL PUSH1 0x0 MSTORE PUSH1 0x12 PUSH1 0x4 MSTORE PUSH1 0x24 PUSH1 0x0 REVERT JUMPDEST POP DIV SWAP1 JUMP JUMPDEST PUSH1 0x0 DUP3 DUP3 LT ISZERO PUSH2 0x2A8D JUMPI PUSH2 0x2A8D PUSH2 0x29D1 JUMP JUMPDEST POP SUB SWAP1 JUMP JUMPDEST PUSH1 0x0 PUSH1 0x20 DUP3 DUP5 SUB SLT ISZERO PUSH2 0x2AA4 JUMPI PUSH1 0x0 DUP1 REVERT JUMPDEST POP MLOAD SWAP2 SWAP1 POP JUMP JUMPDEST PUSH1 0x0 PUSH1 0x20 DUP3 DUP5 SUB SLT ISZERO PUSH2 0x2ABD JUMPI PUSH1 0x0 DUP1 REVERT JUMPDEST DUP2 MLOAD DUP1 ISZERO ISZERO DUP2 EQ PUSH2 0x1845 JUMPI PUSH1 0x0 DUP1 REVERT JUMPDEST PUSH32 0x416363657373436F6E74726F6C3A206163636F756E7420000000000000000000 DUP2 MSTORE PUSH1 0x0 DUP4 MLOAD PUSH2 0x2B05 DUP2 PUSH1 0x17 DUP6 ADD PUSH1 0x20 DUP9 ADD PUSH2 0x2751 JUMP JUMPDEST PUSH17 0x1034B99036B4B9B9B4B733903937B6329 PUSH1 0x7D SHL PUSH1 0x17 SWAP2 DUP5 ADD SWAP2 DUP3 ADD MSTORE DUP4 MLOAD PUSH2 0x2B36 DUP2 PUSH1 0x28 DUP5 ADD PUSH1 0x20 DUP9 ADD PUSH2 0x2751 JUMP JUMPDEST ADD PUSH1 0x28 ADD SWAP5 SWAP4 POP POP POP POP JUMP JUMPDEST PUSH4 0x4E487B71 PUSH1 0xE0 SHL PUSH1 0x0 MSTORE PUSH1 0x32 PUSH1 0x4 MSTORE PUSH1 0x24 PUSH1 0x0 REVERT JUMPDEST PUSH1 0x0 DUP2 PUSH2 0x2B67 JUMPI PUSH2 0x2B67 PUSH2 0x29D1 JUMP JUMPDEST POP PUSH1 0x0 NOT ADD SWAP1 JUMP JUMPDEST PUSH4 0x4E487B71 PUSH1 0xE0 SHL PUSH1 0x0 MSTORE PUSH1 0x31 PUSH1 0x4 MSTORE PUSH1 0x24 PUSH1 0x0 REVERT JUMPDEST PUSH1 0x0 DUP3 MLOAD PUSH2 0x2B97 DUP2 DUP5 PUSH1 0x20 DUP8 ADD PUSH2 0x2751 JUMP JUMPDEST SWAP2 SWAP1 SWAP2 ADD SWAP3 SWAP2 POP POP JUMP INVALID ORIGIN DIV 0xC9 BLOCKHASH MOD CALLDATASIZE PUSH20 0x962B481A0395619B3DBBD137589C419E993978C1 0xC7 SHL 0xCF PUSH9 0xECFC8737AB85EB4512 MSIZE PUSH18 0x625A9EBDB75CC78E01D5C1FA80C4C6E5203F SELFBALANCE 0xBC 0x4F 0xAB LOG2 PUSH5 0x6970667358 0x22 SLT KECCAK256 0xF9 0xCD DUP13 GASLIMIT CODECOPY 0xBA SWAP4 0x27 OR 0xCC CODESIZE 0xEC 0xFC PUSH19 0x370A208AE591330C39E46DFB320304DCDBA964 PUSH20 0x6F6C634300080B00330000000000000000000000 ",
  "sha1": "d6e0948af75da2ff436c37545a16ce27ab77309e",
  "source": "// SPDX-License-Identifier: MIT\npragma solidity ^0.8.0;\n\nimport \"./BankStorage.sol\";\nimport \"../interfaces/ITellor.sol\";\nimport \"../interfaces/IERC20.sol\";\nimport \"./SafeERC20.sol\";\nimport \"./Initializable.sol\";\nimport \"./AccessControlEnumerable.sol\";\n\n/**\n * @title Bank\n * This contract allows the owner to deposit reserves(debt token), earn interest and\n * origination fees from users that borrow against their collateral.\n * The oracle for Bank is Tellor.\n */\ncontract Bank is BankStorage, AccessControlEnumerable, Initializable {\n    using SafeERC20 for IERC20;\n\n    address private _bankFactoryOwner;\n\n    /*Events*/\n    event ReserveDeposit(uint256 amount);\n    event ReserveWithdraw(address indexed token, uint256 amount);\n    event VaultDeposit(address indexed owner, uint256 amount);\n    event VaultBorrow(address indexed borrower, uint256 amount);\n    event VaultRepay(address indexed borrower, uint256 amount);\n    event VaultWithdraw(address indexed borrower, uint256 amount);\n    event PriceUpdate(address indexed token, uint256 price);\n    event Liquidation(address indexed borrower, uint256 debtAmount);\n\n    /*Constructor*/\n    constructor(address payable oracleContract) {\n        reserve.oracleContract = oracleContract;\n    }\n\n    /*Modifiers*/\n    modifier onlyOwner() {\n        require(_owner == msg.sender, \"IS NOT OWNER\");\n        _;\n    }\n\n    /*Functions*/\n    /**\n     * @dev Returns the owner of the bank\n     */\n    function owner() public view returns (address) {\n        return _owner;\n    }\n\n    /**\n     * @dev Transfers ownership of the contract to a new account (`newOwner`).\n     * Can only be called by the current owner.\n     * NOTE: Override this to add changing the\n     */\n    function transferOwnership(address newOwner) public onlyOwner {\n        _owner = newOwner;\n    }\n\n    /**\n     * @dev This function sets the fundamental parameters for the bank\n     *      and assigns the first admin\n     */\n    function init(\n        address creator,\n        string memory bankName,\n        uint256 interestRate,\n        uint256 originationFee,\n        uint256 collateralizationRatio,\n        uint256 liquidationPenalty,\n        uint256 period,\n        address bankFactoryOwner,\n        address payable oracleContract\n    ) public initializer {\n        //set up as admin / owner\n        _setupRole(DEFAULT_ADMIN_ROLE, creator);\n        reserve.interestRate = interestRate;\n        reserve.originationFee = originationFee;\n        reserve.collateralizationRatio = collateralizationRatio;\n        reserve.oracleContract = oracleContract;\n        reserve.liquidationPenalty = liquidationPenalty;\n        reserve.period = period;\n        _bankFactoryOwner = bankFactoryOwner;\n        name = bankName;\n    }\n\n    /**\n     * @dev This function sets the collateral token properties, only callable one time\n     */\n    function setCollateral(\n        address collateralToken,\n        uint256 collateralTokenTellorRequestId,\n        uint256 collateralTokenPriceGranularity,\n        uint256 collateralTokenPrice\n    ) public onlyRole(DEFAULT_ADMIN_ROLE) {\n        require(\n            collateral.tokenAddress == address(0) &&\n                collateralToken != address(0),\n            \"!setable\"\n        );\n        collateral.tokenAddress = collateralToken;\n        collateral.price = collateralTokenPrice;\n        collateral.priceGranularity = collateralTokenPriceGranularity;\n        collateral.tellorRequestId = collateralTokenTellorRequestId;\n    }\n\n    /**\n     * @dev This function sets the debt token properties, only callable one time\n     */\n    function setDebt(\n        address debtToken,\n        uint256 debtTokenTellorRequestId,\n        uint256 debtTokenPriceGranularity,\n        uint256 debtTokenPrice\n    ) public onlyRole(DEFAULT_ADMIN_ROLE) {\n        require(\n            debt.tokenAddress == address(0) && debtToken != address(0),\n            \"!setable\"\n        );\n        debt.tokenAddress = debtToken;\n        debt.price = debtTokenPrice;\n        debt.priceGranularity = debtTokenPriceGranularity;\n        debt.tellorRequestId = debtTokenTellorRequestId;\n    }\n\n    /**\n     * @dev This function allows the Bank owner to deposit the reserve (debt tokens)\n     * @param amount is the amount to deposit\n     */\n    function reserveDeposit(uint256 amount)\n        external\n        onlyRole(DEFAULT_ADMIN_ROLE)\n    {\n        require(amount > 0, \"Amount is zero !!\");\n        reserve.debtBalance += amount;\n        IERC20(debt.tokenAddress).safeTransferFrom(\n            msg.sender,\n            address(this),\n            amount\n        );\n        emit ReserveDeposit(amount);\n    }\n\n    /**\n     * @dev This function allows the Bank owner to withdraw the reserve (debt tokens)\n     *      Withdraws incur a 0.5% fee paid to the bankFactoryOwner\n     * @param amount is the amount to withdraw\n     */\n    function reserveWithdraw(uint256 amount)\n        external\n        onlyRole(DEFAULT_ADMIN_ROLE)\n    {\n        require(\n            IERC20(debt.tokenAddress).balanceOf(address(this)) >= amount,\n            \"NOT ENOUGH DEBT TOKENS IN RESERVE\"\n        );\n        uint256 feeAmount = amount / 200; // Bank Factory collects 0.5% fee\n        reserve.debtBalance -= amount;\n        IERC20(debt.tokenAddress).safeTransfer(msg.sender, amount - feeAmount);\n        IERC20(debt.tokenAddress).safeTransfer(_bankFactoryOwner, feeAmount);\n        emit ReserveWithdraw(debt.tokenAddress, amount);\n    }\n\n    /**\n  * @dev This function allows the user to withdraw their collateral\n         Withdraws incur a 0.5% fee paid to the bankFactoryOwner\n  * @param amount is the amount to withdraw\n  */\n    function reserveWithdrawCollateral(uint256 amount)\n        external\n        onlyRole(DEFAULT_ADMIN_ROLE)\n    {\n        require(\n            reserve.collateralBalance >= amount,\n            \"NOT ENOUGH COLLATERAL IN RESERVE\"\n        );\n        uint256 feeAmount = amount / 200; // Bank Factory collects 0.5% fee\n        reserve.collateralBalance -= amount;\n        emit ReserveWithdraw(collateral.tokenAddress, amount);\n        IERC20(collateral.tokenAddress).safeTransfer(\n            msg.sender,\n            amount - feeAmount\n        );\n        IERC20(collateral.tokenAddress).safeTransfer(\n            _bankFactoryOwner,\n            feeAmount\n        );\n    }\n\n    /**\n     * @dev Use this function to get and update the price for the collateral token\n     * using the Tellor Oracle.\n     */\n    function updateCollateralPrice() external {\n        require(\n            hasRole(REPORTER_ROLE, msg.sender) ||\n                hasRole(DEFAULT_ADMIN_ROLE, msg.sender),\n            \"not price updater or admin\"\n        );\n        (, collateral.price, collateral.lastUpdatedAt) = getCurrentValue(\n            collateral.tellorRequestId\n        ); //,now - 1 hours);\n        emit PriceUpdate(collateral.tokenAddress, collateral.price);\n    }\n\n    /**\n     * @dev Use this function to get and update the price for the debt token\n     * using the Tellor Oracle.\n     */\n    function updateDebtPrice() external {\n        require(\n            hasRole(REPORTER_ROLE, msg.sender) ||\n                hasRole(DEFAULT_ADMIN_ROLE, msg.sender),\n            \"not price updater or admin\"\n        );\n        (, debt.price, debt.lastUpdatedAt) = getCurrentValue(\n            debt.tellorRequestId\n        ); //,now - 1 hours);\n        emit PriceUpdate(debt.tokenAddress, debt.price);\n    }\n\n    /**\n     * @dev Only keepers or admins can use this function to liquidate a vault's debt,\n     * the bank admins gets the collateral liquidated, liquidated collateral\n     * is charged a 10% fee which gets paid to the bankFactoryOwner\n     * @param vaultOwner is the user the bank admins wants to liquidate\n     */\n    function liquidate(address vaultOwner) external {\n        require(\n            hasRole(KEEPER_ROLE, msg.sender) ||\n                hasRole(DEFAULT_ADMIN_ROLE, msg.sender),\n            \"not keeper or admin\"\n        );\n        // Require undercollateralization\n        require(\n            getVaultCollateralizationRatio(vaultOwner) <\n                reserve.collateralizationRatio * 100,\n            \"VAULT NOT UNDERCOLLATERALIZED\"\n        );\n        uint256 debtOwned = vaults[vaultOwner].debtAmount +\n            ((vaults[vaultOwner].debtAmount *\n                100 *\n                reserve.liquidationPenalty) /\n                100 /\n                100);\n        uint256 collateralToLiquidate = (debtOwned * debt.price) /\n            collateral.price;\n\n        if (collateralToLiquidate > vaults[vaultOwner].collateralAmount) {\n            collateralToLiquidate = vaults[vaultOwner].collateralAmount;\n        }\n\n        uint256 feeAmount = collateralToLiquidate / 10; // Bank Factory collects 10% fee\n        reserve.collateralBalance += collateralToLiquidate - feeAmount;\n        vaults[vaultOwner].collateralAmount -= collateralToLiquidate;\n        vaults[vaultOwner].debtAmount = 0;\n        IERC20(collateral.tokenAddress).safeTransfer(\n            _bankFactoryOwner,\n            feeAmount\n        );\n        emit Liquidation(vaultOwner, debtOwned);\n    }\n\n    /**\n     * @dev Use this function to allow users to deposit collateral to the vault\n     * @param amount is the collateral amount\n     */\n    function vaultDeposit(uint256 amount) external {\n        require(amount > 0, \"Amount is zero !!\");\n        vaults[msg.sender].collateralAmount += amount;\n        reserve.collateralBalance += amount;\n        IERC20(collateral.tokenAddress).safeTransferFrom(\n            msg.sender,\n            address(this),\n            amount\n        );\n        emit VaultDeposit(msg.sender, amount);\n    }\n\n    /**\n     * @dev Use this function to allow users to borrow against their collateral\n     * @param amount to borrow\n     */\n    function vaultBorrow(uint256 amount) external {\n        if (vaults[msg.sender].debtAmount != 0) {\n            vaults[msg.sender].debtAmount = getVaultRepayAmount();\n        }\n        uint256 maxBorrow = ((vaults[msg.sender].collateralAmount *\n            collateral.price) /\n            debt.price /\n            reserve.collateralizationRatio) * 100;\n        maxBorrow *= debt.priceGranularity;\n        maxBorrow /= collateral.priceGranularity;\n        maxBorrow -= vaults[msg.sender].debtAmount;\n        vaults[msg.sender].debtAmount +=\n            amount +\n            ((amount * reserve.originationFee) / 10000);\n        require(\n            vaults[msg.sender].debtAmount < maxBorrow,\n            \"NOT ENOUGH COLLATERAL\"\n        );\n        require(\n            amount <= IERC20(debt.tokenAddress).balanceOf(address(this)),\n            \"NOT ENOUGH RESERVES\"\n        );\n        if (block.timestamp - vaults[msg.sender].createdAt > reserve.period) {\n            // Only adjust if more than 1 interest rate period has past\n            vaults[msg.sender].createdAt = block.timestamp;\n        }\n        reserve.debtBalance -= amount;\n        IERC20(debt.tokenAddress).safeTransfer(msg.sender, amount);\n        emit VaultBorrow(msg.sender, amount);\n    }\n\n    /**\n     * @dev This function allows users to pay the interest and origination fee to the\n     *  vault before being able to withdraw\n     * @param amount owed\n     */\n    function vaultRepay(uint256 amount) external {\n        require(amount > 0, \"Amount is zero !!\");\n        vaults[msg.sender].debtAmount = getVaultRepayAmount();\n        require(\n            amount <= vaults[msg.sender].debtAmount,\n            \"CANNOT REPAY MORE THAN OWED\"\n        );\n        vaults[msg.sender].debtAmount -= amount;\n        reserve.debtBalance += amount;\n        uint256 periodsElapsed = (block.timestamp / reserve.period) -\n            (vaults[msg.sender].createdAt / reserve.period);\n        vaults[msg.sender].createdAt += periodsElapsed * reserve.period;\n        IERC20(debt.tokenAddress).safeTransferFrom(\n            msg.sender,\n            address(this),\n            amount\n        );\n        emit VaultRepay(msg.sender, amount);\n    }\n\n    /**\n     * @dev Allows users to withdraw their collateral from the vault\n     * @param amount withdrawn\n     */\n    function vaultWithdraw(uint256 amount) external {\n        require(\n            amount <= vaults[msg.sender].collateralAmount,\n            \"CANNOT WITHDRAW MORE COLLATERAL\"\n        );\n\n        uint256 maxBorrowAfterWithdraw = (((vaults[msg.sender]\n            .collateralAmount - amount) * collateral.price) /\n            debt.price /\n            reserve.collateralizationRatio) * 100;\n        maxBorrowAfterWithdraw *= debt.priceGranularity;\n        maxBorrowAfterWithdraw /= collateral.priceGranularity;\n        require(\n            vaults[msg.sender].debtAmount <= maxBorrowAfterWithdraw,\n            \"CANNOT UNDERCOLLATERALIZE VAULT\"\n        );\n        vaults[msg.sender].collateralAmount -= amount;\n        reserve.collateralBalance -= amount;\n        IERC20(collateral.tokenAddress).safeTransfer(msg.sender, amount);\n        emit VaultWithdraw(msg.sender, amount);\n    }\n\n    function getBankFactoryOwner() public view returns (address) {\n        return _bankFactoryOwner;\n    }\n\n    function setBankFactoryOwner(address newOwner) external {\n        require(_bankFactoryOwner == msg.sender, \"IS NOT BANK FACTORY OWNER\");\n        _bankFactoryOwner = newOwner;\n    }\n\n    function getCurrentValue(uint256 _requestId)\n        public\n        view\n        returns (\n            bool ifRetrieve,\n            uint256 value,\n            uint256 _timestampRetrieved\n        )\n    {\n        ITellor oracle = ITellor(reserve.oracleContract);\n        uint256 _count = oracle.getNewValueCountbyRequestId(_requestId);\n        uint256 _time = oracle.getTimestampbyRequestIDandIndex(\n            _requestId,\n            _count - 1\n        );\n        uint256 _value = oracle.retrieveData(_requestId, _time);\n        if (_value > 0) return (true, _value, _time);\n        return (false, 0, _time);\n    }\n\n    /**\n     * @dev Allows admin to add address to keeper role\n     * @param keeper address of new keeper\n     */\n    function addKeeper(address keeper) external {\n        require(keeper != address(0), \"operation not allowed\");\n        grantRole(KEEPER_ROLE, keeper);\n    }\n\n    /**\n     * @dev Allows admin to remove address from keeper role\n     * @param oldKeeper address of old keeper\n     */\n    function revokeKeeper(address oldKeeper) external {\n        revokeRole(KEEPER_ROLE, oldKeeper);\n    }\n\n    /**\n     * @dev Allows admin to add address to price updater role\n     * @param updater address of new price updater\n     */\n    function addReporter(address updater) external {\n        require(updater != address(0), \"operation not allowed\");\n        grantRole(REPORTER_ROLE, updater);\n    }\n\n    /**\n     * @dev Allows admin to remove address from price updater role\n     * @param oldUpdater address of old price updater\n     */\n    function revokeReporter(address oldUpdater) external {\n        revokeRole(REPORTER_ROLE, oldUpdater);\n    }\n}\n",
  "sourcePath": "contracts/Bank.sol",
  "type": "contract"
}